:020000040800F2
:104000000006002091410008019700089341000834
:104010009341000893410008934100089341000830
:104020009341000893410008934100089341000820
:1040300093410008934100089341000831A1000812
:104040009341000893410008934100089341000800
:1040500093410008934100089341000893410008F0
:10406000934100084DA3000865A3000885A300083C
:1040700093410008934100089341000893410008D0
:1040800093410008934100089341000893410008C0
:1040900093410008934100089341000893410008B0
:1040A00093410008934100089341000893410008A0
:1040B00093410008934100089341000885A8000837
:1040C00072B6244880F30888234880F309880220C8
:1040D00080F31488BFF36F8F05F008F904F055FDE5
:1040E0001E481F491B4A914202DA08600431FAE770
:1040F0001C49194A914202DA08600431FAE71A4968
:104100001A4A1B4B9A4204DA0868106004310432E0
:10411000F8E700201749184A914202DA0860043192
:10412000FAE705F0E7F805F0E2F8144C144DAC425C
:1041300003DA216888470434F9E702F0A5F8114C46
:10414000114DAC4203DA216888470434F9E70F497E
:104150000847000000060020000E00205555555568
:10416000000200200006002020B60008000E0020FB
:10417000801100208011002048170020C040000856
:10418000C0400008C0400008C0400008F19200088C
:1041900096E700F000F8FEE7F0B544464D46564677
:1041A0005F46F0B46B46CB60C3689D46F0BCA0464A
:1041B000A946B246BB46F0BD62B6281CA047002007
:1041C00005F058FAFEE705F0B9F9024A024B136010
:1041D000FEE7C04604ED00E00000008002B4714636
:1041E00049084900095649008E4402BC7047C04640
:1041F00002B4714649084900095C49008E4402BC7A
:104200007047C04603B47146490840004900095A46
:1042100049008E4403BC7047002934D0012300229A
:1042200010B488422CD301242407A14204D2814235
:1042300002D209011B01F8E7E400A14204D2814245
:1042400002D249005B00F8E7884201D3401A1A43C2
:104250004C08A04202D3001B5C0822438C08A042F9
:1042600002D3001B9C082243CC08A04202D3001BAF
:10427000DC082243002803D01B0901D00909E3E729
:10428000100010BC704701B5002000F05FF802BDBF
:104290000029F8D003B5FFF7C1FF0EBC4243891ACD
:1042A0001847C046002941D010B404004C40A44631
:1042B00001230022002900D54942002800D54042B0
:1042C00088422CD301242407A14204D2814202D285
:1042D00009011B01F8E7E400A14204D2814202D2A5
:1042E00049005B00F8E7884201D3401A1A434C08A2
:1042F000A04202D3001B5C0822438C08A04202D3D8
:10430000001B9C082243CC08A04202D3001BDC08FF
:104310002243002803D01B0901D00909E3E710005C
:104320006446002C00D5404210BC704701B5002007
:1043300000F00CF802BDC0460029F7D003B5FFF726
:10434000B3FF0EBC4243891A1847C0467047C046A7
:10435000002B11D1002A0FD1002900D1002802D052
:104360000021C943080007B4024802A14018029086
:1043700003BDC046D9FFFFFF03B4684601B50298EC
:1043800006F032FE019B9E4602B00CBC7047C04650
:10439000D0400B00D1409C46203AD34018435242B3
:1043A00063469340184370479140030090409C46F9
:1043B000203A9340194352426346D3401943704711
:1043C00010B5002903D100F007F8203002E0080002
:1043D00000F002F810BDC0461C2101231B049842C6
:1043E00001D3000C10391B0A984201D3000A083986
:1043F0001B09984201D30009043902A2105C40183D
:104400007047C046040302020101010100000000E0
:104410000000000030B5032A19D903000B43551ED4
:104420009B0710D0002303E05A1C9D4212D01300BA
:10443000C25CCC5CA242F7D0101B0CE0043A043002
:104440000431032A03D904680B689C42F6D0551E38
:10445000002AE7D1002030BDF0B50500830749D020
:10446000541E002A45D003000326CAB202E00135DB
:10447000013C3ED301332A703342F8D1032C30D9AA
:10448000FF220A401502AD182A04AD180F2C34D9AA
:104490002700103F3F093E01B4461E001A001036A7
:1044A0006644156055609560D56010329642F8D12B
:1044B00001373F01DB190F270C22274022403C0027
:1044C000002A0ED03E1FB608B400A4461A001C1DD8
:1044D000644420C2A242FCD103240136B6009B19D9
:1044E0003C40002C05D0C9B21C19197001339C4204
:1044F000FBD1F0BD03001400C0E72700E2E7C0468F
:10450000F0B505000F2A33D90324030026000B431E
:104510001E401C4237D11500103D2D0903000C0030
:10452000AC462F013F1865685D60A5689D60E56831
:10453000DD60256810341D601D001033BD42F2D1CE
:1045400065460F230C2401352D01491913404519E7
:1045500014421AD08C59AC5104369C1B032CF9D848
:10456000043B9B0801339B00ED18C91803231A4034
:10457000561E002A06D00023CC5C1A00EC540133EE
:104580009642F9D1F0BD561EF5E71A00F0E7C04695
:1045900030B5050001200C0085420BD8042909D84C
:1045A000032A07D805216943091989008A1882401E
:1045B000014BD05A30BDC046CEB0000810B5FFF751
:1045C000E7FF10BD012070470120704710B5FFF7CD
:1045D000FBFF10BD012070470120704710B5FFF7A9
:1045E000FBFF10BD7047704710B5FFF7FCFF10BD13
:1045F000012070477047704713B5114B00901B782E
:104600000191002B16D16B465B79002B0DD0002A4F
:104610000BD000F035FD04000100009800F008FD0B
:104620002000009901F04EFB16BD009800F014FD2B
:104630000400F5E7009800F023FD0099F2E7C0467A
:104640008811002010B504000A0001884088000489
:104650000843A188FFF7D0FF10BD10B50400012169
:10466000FFF7F0FF2100FFF7ADFF0023984207D0CE
:1046700001212000FFF7E6FF2100FFF7A7FF03005D
:104680000120184010BD70B500210400FFF7DAFFCB
:1046900005002100FFF7A6FF28002100FFF7A4FF77
:1046A00070BD70B501210400FFF7CCFF21000500AB
:1046B000FFF790FF002801D1002070BD21002800E5
:1046C000FFF78CFF0028F7D02100280003F042FDFF
:1046D0000028F1D02100280003F0AAF90028EBD02F
:1046E0002100280003F07AF90028E5D021002800F5
:1046F00001F09CFE0028DFD02100280001F0E6FE3A
:104700000028D9D02100280001F0D8FB0028D3D000
:104710002100280001F0E4FB0028CDD02100280072
:1047200001F000FCC9E70123834010B598B200F006
:10473000D2FB10BD10B504000120A04080B201F0F2
:10474000ABF82000FFF7EFFF10BD0120704710B558
:10475000FFF7FBFF10BD10B5040000F06DFB20005B
:10476000FFF746FF2000FFF7F2FF10BD10B5012054
:10477000FFF7F1FF04F010F810BD10B50020FFF7AF
:10478000EAFF04F01FF810BD10B5FFF733FF03F088
:1047900034FF02F051FE00F022F8012002F01CFF6D
:1047A00010BD10B500F020F8002002F015FFFFF753
:1047B00022FF03F027FF10BD01207047704770B53E
:1047C000051CFFF7F9FF041E02D0281CFFF7F6FFB7
:1047D000200070BD704710B5FFF7F1FF10BD10B598
:1047E0000020FFF7F8FF10BD10B503F017FDFFF72D
:1047F000F2FF10BD10B503F011FD074B04001A784D
:10480000824207D0187003F083FF044B1860200029
:10481000FFF7E1FF10BDC046801100208411002089
:104820001FB50B0ADBB200900191002B01D000F004
:10483000D7FE0E2300226B441A80009B02AC029329
:104840006B469B88A380DBB2934204D102986168D7
:1048500000F022FE1FBD2000FFF7FFFE0028F5D16B
:10486000F8E7037910B5012B02D1008800F02AFC8B
:1048700010BD10B5002904D003F032FA03F0FAFAA3
:1048800010BD03F083FAF9E710B5041E11D0031F21
:10489000DBB2A02B0ED803F051FD002804D020007D
:1048A00003F0D2FD00F036FF200003F0B1FD00F070
:1048B00031FF10BD03002033DBB2072B07D80723DD
:1048C000034001209840C0B200F064FEEFE703000F
:1048D0005B33DBB2022B04D8243CA0B203F0D2FC41
:1048E000E7E703005833DBB21A2B05D8074A5B0011
:1048F000985A03F0E3FCDCE703003333DBB2122BFE
:10490000D7D803F0EDF903F0B5FAD2E71EB10008ED
:1049100010B5002807D0031FDBB2A02B04D803F08A
:1049200093FD00F0F7FE10BD03002033DBB2072B30
:1049300007D80723034001209840C0B200F032FEA0
:10494000EFE703005B33DBB2022B03D8002003F058
:1049500099FCE8E703005833DBB21A2B03D8002098
:1049600003F0ACFCDFE703003333DBB2122BDAD801
:1049700003F00CFA03F07EFAD5E7000070B50400EE
:104980000D00FFF781FF0120002D0ED000230A4A01
:104990002800002106F006FB0023084A8018594130
:1049A000FA2200239200FFF7D3FC04F068FE2000F7
:1049B000FFF7AEFF70BDC046A0860100E703000010
:1049C000002110B5392800D15031FFF7D7FF10BDB5
:1049D00010B5002803D000F0DDFD00F09BFE10BDF7
:1049E00010B5002803D000F0DDFD00F093FE10BDEF
:1049F000F0B585B087790C1C4579029000F0BAFDBE
:104A000023043F0901900393002828D00195002D2D
:104A100025D023041B0E0F221900914340290FD0EB
:104A2000E1B20A0000202032D2B20190072A16D942
:104A30001F229343202B03D1012910D987420ED086
:104A40000022A84B01925B785B0708D5022000F09A
:104A50009BFE00F08FFD01234340DBB20193230452
:104A6000180F0B283ED8FFF7CDFB0C000C005700A9
:104A70005700B400C8003D003D00CD0029013F01B2
:104A80003F0126052304360F1B0E0F2B00D93601DC
:104A9000E4B2002D12D0002E0BD023002033DBB265
:104AA0003000072B01D9002C05D100F073FD00F078
:104AB00031FE200051E000F083FDF8E72000FFF711
:104AC00027FF002E0ED023002033DBB23000072B4F
:104AD00001D9002C02D100F065FD01E000F078FD65
:104AE00000F018FE019B002B00D1AEE000F03AFD73
:104AF000012302001A40184200D0A6E0029B5A711E
:104B000000F02AFD00F026FA029800F05DF900F0AE
:104B100023FD00F02BFA98E00F22230426051B0E3C
:104B2000360F9343202B00D03601E4B2002C06D080
:104B3000012C36D0002D3FD0002F1CD0B9E7694B97
:104B40005B785B0713D4002D0AD0002E04D0300010
:104B500000F020FD00F0DEFD0020FFF795FEC1E72C
:104B60002800FFF7D5FE002EBCD03000B3E7002DA3
:104B70000BD0002F03D13000FFF72AFFB2E7012F3F
:104B8000B0D1300000F04CFDACE7002FAAD13000CE
:104B9000FFF726FF300000F051FD300000F02CFD43
:104BA000A0E7002D02D0052F9CD8E4E7042F99D868
:104BB0003000FFF715FF95E7002FF9D00120392CC1
:104BC00001D1FA20400104F05AFD2000FFF7A0FEB9
:104BD00088E72005800F09D0012883D10020854275
:104BE00001D0A005800D03F069FB7BE7002D01D00B
:104BF000A005800D03F046FB74E72900E0B2FFF743
:104C000038FE6FE723049B019B0F29D1002D18D19B
:104C100023065B0F9B002207DBB2120F9A4090B273
:104C2000E10603D50F359D40ED43ADB22405A40F39
:104C30002843022C0ED0032C0FD0012C07D000F0FB
:104C400059F903F0EBFAFFF7C6FD05B0F0BD00F02F
:104C500047F9F6E700F058F9F3E700F03CF9F0E720
:104C6000A3059B0FDAB2002D1CD0DB07E9D5230684
:104C70005B0F9B002207DBB2120F9A40002092B21A
:104C8000E10603D50F309840C04380B22405A40F3D
:104C90001043022C0CD0032C0DD0012C05D000F0B9
:104CA00087F9CEE7012ACCD9E1E700F077F9C8E728
:104CB00000F088F9C5E700F037F9C2E7E6B224054D
:104CC000240F002D06D0200000F044F93000FFF73B
:104CD0007FFEB6E73000FFF783FE200000F046F9C4
:104CE000AFE7C046BA150020E6B23000F03804281D
:104CF0003DD8FFF77DFA032510172100002D06D0BF
:104D0000042F9ED8E004C00E00F03CF999E7052F6F
:104D100000D996E7F6E7E004C00E002DDED100F0E2
:104D200019F98EE7002D04D0E004C00E00F00BF955
:104D300087E700F003F984E71A4B5B785B0704D43C
:104D4000E004C00E002DC9D0E9E7002D05D0E00435
:104D50000321C00E00F0F6FC73E7012000F014FD03
:104D6000012F00D86DE7022000F00EFD69E7002D4D
:104D700008D0002F03D03000FFF786FD61E7E00484
:104D8000C00ECCE7002F0AD00120392E01D1FA2025
:104D9000400104F074FC3000FFF7BAFD51E7E00475
:104DA000C00E9BE7BA15002070B504002188407939
:104DB00000F092F9051C00F00FF900F08BF8291CA7
:104DC0002000FFF715FE70BD037910B50400002B1D
:104DD00011D0FFF766FC00280ED100F0CBFB0028B5
:104DE00009D06379002B06D0074B5B785B0702D5AF
:104DF000022000F0C9FC10BD2000FFF7D5FF200005
:104E0000FFF741FCF7E7C046BA15002010B50020B7
:104E100003F038FA002003F051FA00F0E1FB00F053
:104E200079FC03F041F803F025F810BD10B503F04C
:104E300027FBFFF7EBFF10BD10B500F0BBFBFFF742
:104E4000F5FF10BDC2B20004030F062B18D00F21CE
:104E5000062B0ED80E3300200B40012B08D8012062
:104E6000F02A05D007D80020E72393424041C0B282
:104E700070470633EFE7F43A100043425841F6E733
:104E80000120E72AF4D9F13A53425A41D0B2EFE770
:104E900003000279002010B5824204D0188800F087
:104EA00011F9FFF7CFFF10BD82B002B0704782B09A
:104EB00002B07047704710B5FFF7FCFF10BD704798
:104EC00010B5FFF7FCFFFFF7F6FF014B188010BD90
:104ED00098110020704710B5FFF7F2FF10BD0000D9
:104EE00010B5034B1B881843FFF7EAFF10BDC046FF
:104EF0009811002010B5034B1B881840FFF7E0FF06
:104F000010BDC0469811002010B5034B1B885840B7
:104F1000FFF7D6FF10BDC04698110020704710B5AE
:104F2000FFF7FCFF10BD704710B5FFF7FCFFFFF760
:104F3000F6FF014B188010BD9611002010B500201F
:104F4000FFF7F2FF10BD0123834010B598B2FFF7C1
:104F5000EBFF10BD01238340034A10B510881843AE
:104F600080B2FFF7E1FF10BD9611002001238340BE
:104F700010B5034A10889843FFF7D6FF10BDC0460E
:104F80009611002001238340034A10B51088584031
:104F900080B2FFF7C9FF10BD9611002010B5034B7A
:104FA0001B881843FFF7C0FF10BDC04696110020B4
:104FB00010B5034B1B881840FFF7B6FF10BDC04665
:104FC0009611002010B5034B1B885840FFF7ACFF2B
:104FD00010BDC04696110020704770B50126CB0861
:104FE0009B00D2180723350019408D400021EDB2F7
:104FF0000300CB40545C33405B4263402B405C4039
:10500000545401310429F3D170BD30B50724002276
:105010000440C00880000918012510008B5CE340A3
:105020002B40934001321843C0B2042AF6D130BD60
:1050300007B5030401AA10801B0E0800042B07D833
:105040001178032904D89B00024AC918FFF7C5FF4D
:1050500007BDC0468911002007B5030401AA1080CE
:105060001B0E0020042B07D81278032A04D89B00BB
:105070000249D018FFF7C9FF0EBDC04689110020B4
:10508000F7B50F2401270D4A0D4B12881B8801AE7E
:105090001A4330800092009B23413B4204D1013CE3
:1050A000F9D200252800FEBDE5B22800316800F0E5
:1050B00019FE80B20128F2D0F4E7C0469611002014
:1050C0009811002007B501AB18800198FFF7D8FFB1
:1050D000019900F007FE0EBD13B501AB19800E4B10
:1050E0001B78002B03D00198FFF7ECFF16BD0028BA
:1050F0000CD00198FFF7C4FF040001000198FFF7EE
:1051000097FF2000019900F0EDFDEFE70198FFF710
:10511000A3FF0400F5E7C0468811002070B50725FD
:105120000B4B1C780B4B1B78A34200D170BD0A4B74
:10513000E200D15A9B1858889A8800040843D988FD
:10514000013409041143FFF7B2FE2C40EAE7C046E0
:105150009A1100209B1100209C110020064B10B5D5
:1051600058881A88D988000410439A880904114382
:10517000FFF79DFE10BDC046DC110020F8B51A48AF
:1051800083790F2B2BD84379002B28D0174B058818
:105190001A78174B46881C7807239C46154FA24265
:1051A0001DD0D300DB191979002919D01988A9421B
:1051B00016D15979002913D15988891B89B2C72979
:1051C0000ED80F241021827922400A4382719A79E5
:1051D000224011439971FFF7F7FDFFF79FFFF8BDDC
:1051E000634601321A40DAE7DC1100209A110020F0
:1051F0009B1100209C110020F7B50E4C0E4B24781B
:105200001B7801940D4C019DAB4201D10020FEBDE5
:10521000DE00A5196F788F4205D1365D864202D136
:105220006D79954203D1072501332B40EBE701202F
:10523000EDE7C0469B1100209A1100209C11002030
:10524000F0B5040089B00622010004A8FFF758F960
:105250002378904D03936378667902932B7967885E
:105260002279002B18D1002A00D1CAE0002E00D1EB
:1052700007E12000FFF70CFE002800D101E1082221
:1052800021002800FFF73CF92800FFF7EAFAFFF7B2
:1052900075FFFFF763FFB4E06B7901936B880199A9
:1052A000FB1A9BB2002900D1C1E0C72B00D985E0D1
:1052B000002A00D1A5E0AB79298822880F2B53D88A
:1052C000914211D1002E49D10F22134001321343D4
:1052D000AB71FFF743FF2800FFF776FDAB79A371B1
:1052E0000025280009B0F0BD002E37D13200029908
:1052F0000398FFF781FF320002990398FFF77CFFC4
:10530000051EEDD10498FFF7DDFEC3B200040F21A6
:10531000020F032A08D8012A0FD9000E014211D02A
:10532000A2790F2A0ED8DCE706320A40012A0ED9EC
:105330002000FFF749FD019DD3E7000E014201D097
:10534000002BCED02033DBB2072BCAD9F0E7EF2BEE
:10535000C7D90F33DBB2022BC3D9E9E701234D4A8A
:1053600091790B439371BBE791420BD1002E09D188
:10537000A3712000FFF728FD082221002800FFF775
:10538000BFF886E72000FFF783FD002879D0002EC4
:1053900077D0404B9A791F2A0AD9198806A801802C
:1053A00047801B798271037100234371FFF70CFD65
:1053B000082221002800FFF7A3F868E7AB790F2B3C
:1053C0000ED804980599FFF76FFD2800FFF7FCFC45
:1053D000082200212800FFF73FF8FFF7BFFE7FE714
:1053E000002A0ED02988228891420CD1002E0AD1A1
:1053F0002000A371FFF7E8FC082231002800FFF726
:105400002BF801256DE72000FFF742FD002838D07A
:10541000002E36D0AB791F2BCAD92A8806A8028065
:1054200047802A798371027100224271BEE7C72B3F
:105430002BD8002AE5D0002E23D02A8823889A4230
:1054400016D1AB79DA070DD40F2B0BD90F21A3712D
:105450008B43F02B8DD0A3791A09013212010B4036
:10546000134385E7082221002800FFF749F8C8E721
:105470002000FFF70DFD00289AD10123AA791343DC
:10548000AB712000FFF7A0FCBBE704980599FFF77C
:105490000BFD9DE7DC110020F0B585B06C46009057
:1054A00020006160FFF7CCFE274E071E274D0DD070
:1054B0002379002B03D000986168FFF7F8FC0727D9
:1054C00028783378834225D105B0F0BD220002ABA5
:1054D0009C4603CA03C3207933782A780028EED08B
:1054E00007205C1C044094420AD01948DB000822C3
:1054F0006146C018FFF704F83470FFF70FFEDEE7CF
:10550000FFF79AFC08223900124837702F70FEF717
:10551000A3FFD4E70E4CC0000019FFF791FE00284E
:10552000D2D02B78DB001A5BE4186088E188A3886E
:105530000004090419431043FFF7B9FC2B78013329
:105540003B402B70BCE7C0469B1100209A11002005
:105550009C110020DC110020014B1878C008704716
:105560000C120020024B1878072318407047C046E1
:105570000C120020034B187807231840431E984153
:10558000C0B270470C120020014B18787047C0461B
:1055900038120020024B1A78104318707047C0462A
:1055A00038120020024A1378834313707047C046B4
:1055B000381200200022014B1A7070473812002068
:1055C000024B1A78104318707047C04637120020FB
:1055D000024A1378834313707047C0463712002085
:1055E0000022014B1A70704737120020704710B527
:1055F000FFF7FCFF10BD0000030010B5044A10784F
:10560000034203D098431070FFF7F1FF10BDC0466E
:105610000D120020704710B5FFF7FCFF10BD000011
:10562000010010B5044A13781940814203D00343A6
:105630001370FFF7F0FF10BD0E120020030010B52D
:10564000044A1078034203D098431070FFF7E3FF39
:1056500010BDC0460E12002010B5044B1A78002A67
:1056600003D000201870FFF7D6FF10BD0E120020E7
:1056700010B5094A094B14781B781C43084B1B785A
:10568000002B06D01C4302F035FE002801D0FFF7A6
:10569000E3FF200010BDC046381200203712002062
:1056A0000E12002070B50B4C2568FFF7E1FF287043
:1056B0002468094D082229002000FEF7ABFE0028CF
:1056C00007D0082221002800FEF71AFF200002F070
:1056D000B1FD70BD4C0E00200412002070B50B4CC3
:1056E0002568FFF7C5FF68702468094D202229004E
:1056F0002000FEF78FFE002807D02022210028007E
:10570000FEF7FEFE200002F0A1FD70BD480E002055
:10571000E411002010B502F079FD002806D0054BF9
:105720001B787F2B02D9FFF7D9FF10BDFFF7BAFF17
:10573000FBE7C046BA150020704710B5FFF7FCFF25
:1057400010BD0000094B10B55B785B070AD5084C0B
:10575000C30019432170FFF7FDFB2078C008FFF755
:10576000ECFF10BDFFF7F6FBFBE7C046BA150020C3
:105770000C120020002010B5024B1870FFF7DDFF5F
:1057800010BDC0460C12002010B5094A137819004C
:10579000814311704A070AD1994208D0054B5B78C2
:1057A0005B0704D5C808FFF7E1FBFFF7E3FF10BD77
:1057B0000C120020BA15002003000A4810B54278E8
:1057C0005107C90F99420BD001210B4003319B00B7
:1057D0008A431A43427000F067F80220FFF7D4FFB3
:1057E00010BDC046BA150020044B10B558780123EF
:1057F0004007C00F5840FFF7DFFF10BDBA1500206B
:1058000010B50120FFF7D8FF10BD10B50020FFF73D
:10581000D3FF10BD10B5002000F0FFFB10BD10B588
:10582000002000F0F4FBFFF7F5FF10BD07B500F016
:1058300097FB00F0A7FB6A4600236846137000F050
:10584000BCFB0120084B188000F0C2FB074B01A8ED
:105850001B88038000F0C9FB01F05EF9FFF7DFFF52
:1058600001F04EF907BDC04698110020C8B00008ED
:1058700010B5FFF7DBFF10BD10B500F08BFB10BDBE
:1058800010B500F073FB10BD10B500F08FFB10BD1C
:1058900010B500F098FB10BD10B500F099FB10BDDD
:1058A00010B500F09BFB10BD10B500F09EFB10BDC5
:1058B00010B500F0A0FB10BD10B500F0A2FB10BDAC
:1058C00010B500F0B0FB10BD73B502F05FFF094DDD
:1058D00004002B8883420CD06B4600261E8002F009
:1058E00055FF6B469E80588000980199FEF798FFFF
:1058F0002C8073BD3A12002010B502F009FF024B54
:105900001860024B186010BD401200203C120020AD
:105910007047704710B5FFF7FCFF10BD704710B51A
:10592000FFF7FCFFFFF7F6FF10BD704710B5FFF75C
:10593000FCFF10BD704710B5FFF7FCFFFFF7F6FF47
:1059400010BD01207047000010B5054800F074FB41
:1059500000F031FDFFF7DCFFFFF7E1FF10BDC046AF
:10596000B95E00080120704710B5FFF7FBFF10BDBE
:1059700070477047704710B5FFF7FAFFFFF7F9FF60
:10598000FFF7F8FF10BD000010B5FFF779FF002802
:1059900001D1FFF76DFF0848FFF776FF0748FFF7D3
:1059A0007FFF02F016F8FFF773FFFFF794FA044B3E
:1059B0001888FFF7B4FA10BD44120020BA15002071
:1059C0009611002010B502F09FFE00F0E1FBFFF7FA
:1059D000DBFF02F019FCFEF7FDFE01F0CDFDFFF745
:1059E000AAFF10BD70B50D001600040001F0E6F826
:1059F00032002900200002F02DFE70BDF0B587B006
:105A0000FFF79FFF00280BD1FFF75EFF02F0FDFBC1
:105A100001F012FD02F072FAFEF7ECFE07B0F0BDE5
:105A200000F0CEFB00242F4DE0B22E5D00F014FB01
:105A3000042C54D001348642F5D02B4B1B789B07A5
:105A400001D500F00FFBFFF78FFF002403900095B6
:105A5000200000F001FB009B06001B78984234D028
:105A6000002501274340DBB20293029B1F4224D052
:105A70003B0033405A1E9341DBB20193039B002B42
:105A800016D02900200002F0D9FD002810D104AB67
:105A90001D705C7002F07AFE04AB5880012304AAEA
:105AA00013711300019A04985A710599FEF7B8FE14
:105AB00029002000019AFFF795FF01357F00EDB224
:105AC000FFB2042DD1D1009B1E70009B0134013325
:105AD000E4B20093052CBBD1FFF70EFF96E7864298
:105AE000ABD191E7B41500204412002070B500F04E
:105AF00003F9A4230400DB0198424ED2A023DB016A
:105B0000984200D39FE0DF281CD8CC285BD8A72878
:105B10000AD8A42800D97AE0012831D0031F9BB20B
:105B2000A02B2DD900242BE00300A83B9BB21A2BFD
:105B3000F8D85834544BE4B26400E35A8824E401A2
:105B40001C431DE08023DB0198421BD28026B60156
:105B5000B04200D388E0E72812D9431EFF3B013E44
:105B6000FF3E9BB2B342DDD2000AC0B200F056F94C
:105B70000500E0B200F0C0F82D023540284384B2A1
:105B8000201C70BDC0B200F0B7F8F0231B01234009
:105B90003E4C18430443A4B2F2E7A523DB0198422C
:105BA0001DD23B4B98423BD83A4B98420DD83A4BCA
:105BB000984230D80322C4B2A3081440023AA2404B
:105BC0005B01364C13431C43E5E7032101220140EE
:105BD0008A40C3065B0F5B01314C1343F3E7314B43
:105BE000984208D81F20304B20409C4222D82F4C8E
:105BF00000020443C4E72E4BC3189BB21F2B00D9ED
:105C000090E7F82304025B011C402A4B98E78023AD
:105C1000243CDB01D7E71F230340274C1B028FE7FF
:105C20000321012201408A40C3065B0F5B01234C24
:105C30001343C8E700F0F2F8F823802400025B0168
:105C40001840A401D5E71F20204000F0E7F8E30545
:105C50001B0F1B02C20605D5FF2200011040184C85
:105C60000343B0E700B2FAE7C004C00E00F0D6F874
:105C70000500E0B200F040F8F8232D025B011D4062
:105C800005432E43B4B27BE754B1000800A0FFFFE8
:105C90005F5200003F5200001F520000008DFFFFC6
:105CA000008CFFFFBF5200009F520000F4A00000D4
:105CB00040ADFFFFF0A00000F1A00000008AFFFF50
:105CC0000090FFFF07B50B0401AA1180190E0023F5
:105CD000042905D81278032A02D8FEF76FFC0300C6
:105CE00018000EBD07B501AB19800199FFF7EAFF57
:105CF000FFF7FCFE0EBD0000030010B5E7280AD830
:105D0000DF280AD8312800D173E00FD8292866D0BF
:105D10002A2800D174E0180010BDE0380728FAD80E
:105D2000FEF75CFA18F927303DF9474C392808D0BE
:105D3000822806D03528EED1374A12789206EAD565
:105D400006E0354A1178890761D152781207E2D509
:105D50002923E0E730480121027814000C400A4270
:105D600045D140780842D6D02300D206D3D4E323CD
:105D7000D1E7294A12785107CDD50023D206CAD4DB
:105D8000E333C8E72449E2230A785007C3D44878AC
:105D900001210400023B0C400842E5D0BBE71E4A4B
:105DA00051788907B7D512780023D206B3D4E733E8
:105DB000B1E7194A12781107F6D4ACE71649E62381
:105DC0000A781007A7D4487802210400023B0C404F
:105DD0000842A0D12300D2069DD4E7239BE70E4AB8
:105DE0001178890615D45278120700D493E7392325
:105DF00091E7094A1278520600D48CE72A238AE7F1
:105E0000054A1278520600D485E7312383E7E02360
:105E100081E735237FE7C046BA15002030B5254C11
:105E200021784B070DD514220240043A53425A41BF
:105E300018230340083B5D426B419A4201D00C237A
:105E400058400B070DD514220240143A53425A41D0
:105E500018230340183B5D426B419A4201D00C234A
:105E600058406478E3070DD511220240013A5342AD
:105E70005A4118230340083B5D426B419A4201D0CE
:105E800009235840A4070DD511220240113A53426C
:105E90005A4118230340183B5C4263419A4201D0A7
:105EA00009235840C90603D5030701D51823984391
:105EB00030BDC046BA15002000207047074B10B512
:105EC000C31801241F2B06D84C79002C03D11F23A3
:105ED0001840FEF72FFC200010BDC04620ADFFFF8C
:105EE00010B503004879002813D00B4A93420DD017
:105EF0000A4A934203D00A4A934204D010BDFFF7E6
:105F000073FC0020FAE7FFF77BFCFAE7FFF77DFC64
:105F1000F7E70120F2E7C0465B7C00005C7C0000F4
:105F20005A7C000010B503004879002811D00A4AB5
:105F300093420BD0094A934206D0033A934202D1CE
:105F4000FEF714FC002010BDFFF796FCFEF715FCD1
:105F5000F8E70120F7E7C046017C0000037C000061
:105F600010B5002000F032FA10BD000010B500207E
:105F700000F0ADF9024BC01843425841C0B210BD09
:105F80001D01FFFF10B50020014900F0FCF910BD14
:105F9000E3FE000010B5002000F018FA00200249CE
:105FA00000F0F1F910BDC046FFFF000010B504007D
:105FB000022000F07FF9207010BD10B5017802209A
:105FC00000F0D5F910BD10B5032000F073F910BD35
:105FD00010B5C1B2032000F0CAF910BD10B504001D
:105FE000042000F074F9208010BD10B50188042051
:105FF00000F0C9F910BD10B50822172100F0ECF926
:1060000010BD10B50822172100F094F910BD10B58D
:1060100001000F2000F0C3F910BD10B501001320DE
:1060200000F0BDF910BD10B501000E2000F09FF981
:1060300010BD002070470000014B18607047C0463B
:10604000500E0020704710B5FFF7FCFF10BD7047E1
:1060500010B5FFF7FCFF10BD014B185C7047C04640
:10606000C1150020704710B5032003F008FB10BDD8
:10607000C046C046C046C046C046C046C046C046F0
:10608000C046C046C046C046C046C046C046C046E0
:10609000C046C046704710B5FFF7E5FF10BD10B50C
:1060A00072B60F23020001211A409140984320222A
:1060B00004F047F862B610BD70B50B48FFF7EFFF6C
:1060C0000A48FFF7ECFF0A48FFF7E9FF0948FFF726
:1060D000E6FF094C094D2068431C01D0FFF7DFFFA4
:1060E0000434AC42F7D170BD0C0400480B040048E6
:1060F0000A0400480D0400489CB10008B0B1000833
:10610000F7B5214B01928A00D358040000915A1C24
:1061100036D072B60F2501261F002B409E40AF439C
:10612000310001223800360404F00BF8BE6162B67B
:10613000FFF79EFF631D9C46019B0026DF4313492A
:106140000A682378501C1CD01000A843008A2A40FB
:10615000D0400122104214D10126019A134323702A
:1061600001340431A445EBD1009A074B9200D0587A
:10617000431C01D0FFF793FF31000098FFF78BFF1E
:10618000F7BD3B40EBE7C0468CB100089CB100086E
:1061900010B50524FFF790FF220000210648FEF706
:1061A0005BF9220000210548FEF756F900F03AF8A5
:1061B000FFF749FF10BDC046C1150020BC150020E7
:1061C00037B5052200216846FEF746F9002401256F
:1061D000210001342A0068466D00E4B2FFF790FF09
:1061E000EDB2042CF4D10D4C052269462000FEF7D7
:1061F00011F905006B1E9D41EDB2002804D0052267
:1062000069462000FEF77CF92A000549200000F0CD
:106210000BF80400FFF71CFF20003EBDBC1500205A
:10622000C115002070470000F7B50600141E124F7C
:10623000019107D001233B7002F06AFA0F4B1860FE
:106240000020FEBD3D78002DFAD00C4B186802F0FE
:1062500016FA0428F4D9052231000198FEF7DAF87D
:10626000002805D0052231000198FEF749F92C00DD
:10627000002320003B70E4E74C120020481200206D
:1062800010B5FFF7BBFB10BD10B502F006FA02F027
:106290008AFCFFF759FB02F08BFCFFF793FB02F03F
:1062A00095FC02F09BFCFFF7EBFF02F0B5FCFFF75B
:1062B00062FBF6E707B500236A46D3716B4601001F
:1062C0000122D81D00F088F86B46D8790EBD07B5BD
:1062D00000236A46D3806B4601000222981D00F01D
:1062E0007BF86B46D8880EBD002307B5010001A8D6
:1062F0000422019300F070F801980EBD07B56A46BC
:106300000300D01D01700122190000F07DF807BDC7
:1063100007B56A460300901D01800222190000F0B3
:1063200073F807BD07B504220191010001A800F030
:106330006BF807BDF8B51400D31D6A46DB08DB0017
:10634000D31A00AF9D460500220068460E0000F0FB
:1063500043F8220069462800FEF75CF8002804D0C4
:1063600022003100280000F04FF8BD46F8BD70B59E
:106370000D000400FFF79EFFA84203D02900200073
:10638000FFF7BCFF70BD70B50D000400FFF79FFF65
:10639000A84203D029002000FFF7BAFF70BD70B5F6
:1063A0000D000400FFF7A0FFA84203D02900200041
:1063B000FFF7B8FF70BD704710B5282200210248D2
:1063C000FEF74AF810BDC0465012002010B5002854
:1063D00001D0FFF7F1FF10BD70B50D0014000021D2
:1063E0000600FEF739F82B19282B01D92824641B45
:1063F000002C05D00349220030006918FEF780F810
:1064000070BDC046501200200300881810B528281F
:1064100001D92822521A002A04D00348081819006A
:10642000FEF76EF810BDC0465012002010B54B7933
:106430000400002B01D1012010BDFFF7A5F8222395
:10644000214A0340A0180A28F5D8FDF7D1FE060A14
:106450000F14191E23282D32370001F0F1F8002007
:10646000EAE7002B04D001F069F9F8E7002BFAD035
:1064700001F04EF9F3E7002B04D001F09BF9EEE7B1
:10648000002BFAD001F082F9E9E7002B04D001F0EB
:10649000C1F9E4E7002BFAD001F0A4F9DFE7002B03
:1064A00004D001F0E7F9DAE7002BFAD001F0CAF9DD
:1064B000D5E7002B04D001F005FAD0E7002BFAD085
:1064C00001F0ECF9CBE7C046E087FFFF70B54C79EF
:1064D0000500002C02D00124200070BDFFF754F805
:1064E00022232A4A0340A8180E28F4D8FDF780FE7C
:1064F000080B0E11161B20252A2F34393E43480065
:1065000001F0B8F8E8E701F0CDF8E5E701F098F818
:10651000E2E7002B04D001F011F9DDE7002BFAD0FF
:1065200001F0F6F8D8E7002B04D001F043F9D3E7E7
:10653000002BFAD001F02AF9CEE7002B04D001F0AD
:1065400069F9C9E7002BFAD001F04CF9C4E7002B38
:1065500004D001F08FF9BFE7002BFAD001F072F9F7
:10656000BAE7002B04D001F0ADF9B5E7002BFAD063
:1065700001F094F9B0E7002B04D001F0CFF9ABE7BC
:10658000002BFAD001F0B4F9A6E7C046C087FFFFA0
:106590007FB5050A030CEDB20190DBB2002D10D1DE
:1065A000002901D0274AD35C1C001A00FF212000DB
:1065B0000A40084012020B401B041043184304B069
:1065C00070BD01AA1C001678002901D01D4B1C5D6E
:1065D0000620FF217043FDF765FE552149424143E6
:1065E0007600711803264E43FF22F6B23100961B47
:1065F000531B6943754309122D12511A521B6343F1
:10660000614362431B1209121212DBB2C9B2D2B249
:10661000E4B2062814D8FDF7E1FDC904070C1113F4
:10662000C90022000C00C1E721001C0013000A0071
:10663000BCE70A0021001C000B00B7E72100140092
:106640001A00F9E7CCB100081FB50121FFF7A0FF40
:10665000FF210200030A0B40000C08400A401B0205
:106660001A43030402481040184305B000BDC04659
:10667000FFFF00FF010030B5C0B2012916D9F72392
:10668000FF225B01994202D84A090832D2B20124A2
:10669000A018401005004543ADB2C3B2A94206D2CE
:1066A000013BDAB29442F3D9013CE0B230BDFF289D
:1066B000FCD00133DCB2F5E740230100020010B545
:1066C0001940184201D0C243D2B20F234C1EA1413F
:1066D000134092065B18920F0849520052185178E5
:1066E00012784B431B119B1840B2DBB2002801DA31
:1066F0005B42DBB2803BD8B210BDC046B3B10008EC
:106700001FB5040C01905008FFF7D6FF0200803A35
:10671000E4B253B2120603D580235B421B1A5BB26C
:1067200001AA1288FF2110005B000134DBB2634331
:10673000120A1B12084012020B401B04104318439C
:1067400004B010BD84B001AB01901A701A8899781A
:106750001000FF23120A184012020B401B041043C2
:10676000184304B0704700001FB50B4B08314900B7
:106770005B181B7901AC9B1A019023702288FF23C0
:106780001000A178120A184012020B401B0410439B
:10679000184304B010BDC046000E00201FB50B4BBF
:1067A000083149005B185B7901AC9B1A019023709A
:1067B0002288FF231000A178120A184012020B4011
:1067C0001B041043184304B010BDC046000E002047
:1067D000F0B50831124D4B00EB185F7916003A0006
:1067E00085B0203A019001ACC0B253B2120602D576
:1067F0002023DB1B5BB2490069180A79A178921B40
:10680000D218801820702288FF231000120A184026
:1068100012020B401B041043184305B0F0BDC046E4
:10682000000E002084B004AA0190107803225A437D
:10683000521001A9801808700A88FF231000897877
:10684000120A184012020B401B041043184304B0F4
:1068500070471FB51C0001904BB2080601D5494294
:106860004BB23820C01A80B292B2524340438018D3
:1068700080B2FFF7FFFE0322424301ABA4181C7055
:106880001A8899781000FF23120A184012020B4050
:106890001B041043184304B010BD000030B508338A
:1068A000104D5B00EB185D791B79203D703B59431F
:1068B0007F236A435118CA171A40521885B0D21163
:1068C00001AC1218019022702288A1781000803348
:1068D000120A184012020B401B041043184305B063
:1068E00030BDC046000E002030B50833104D5B00AF
:1068F000EB185D791B79203D703B59433F236A4378
:106900005118CA171A40521885B0921101AC1218CA
:10691000019022702288A1781000C033120A18401A
:1069200012020B401B041043184305B030BDC04693
:10693000000E00207FB5164D08335B00EB185D7923
:106940001E79203D6A433500703D019001ACC0B214
:106950006BB22D0602D570239B1B5BB23825EB1A58
:10696000594303238A187F215343DA170A40D21868
:10697000D211801820702288FF231000A178120AFB
:10698000184012020B401B041043184304B070BDA2
:10699000000E002030B585B00190C4B25008FFF75A
:1069A0008BFE0200803A01AD53B2120603D580235C
:1069B0005B421B1A5BB20D225B00DBB253431B121E
:1069C000E4182C702A88FF231000A978120A1840B6
:1069D00012020B401B041043184305B030BD84B0B5
:1069E00004AA12880190D21A131C92B2FF2A00D96D
:1069F000FF23DBB2D94301AA9078C9B24018011C29
:106A0000FF2800D9FF2110781B1813701288FF236C
:106A10001000120A184012020B401B0410431843C6
:106A200004B07047024B1A78104318707047C04684
:106A30007812002010B50B00041E02D1C80FC0014F
:106A400010BDC11742184A4012B29918002B0CDB36
:106A50009B1A5801FDF726FC20231B1A5BB2D8B203
:106A6000002CEDDA4042C0B2EAE74801D11AFDF746
:106A700019FC6023F1E730B585B0019010001D00CE
:106A8000FFF7D8FF01AC401920702288FF231000C7
:106A9000A178120A184012020B401B04104318433D
:106AA00005B030BD30B585B00190100008AA14784B
:106AB00001AD1C1BFFF7BEFFE4B2241A2C702A881C
:106AC000FF231000A978120A184012020B401B0481
:106AD0001043184305B030BD1FB5FFF7B5FDFF21CA
:106AE0000200030A0B40000C08400A401B021A4334
:106AF000030402481040184305B000BDFFFF00FF2B
:106B000010B50348FEF7D8FE0022024B1A7010BDE4
:106B1000C8150020781200202D2310B5084C032240
:106B20000849601C2370FDF7EBFC812320005B42C9
:106B3000A380FEF7C1FE0022034B1A7010BDC046B1
:106B4000C8150020CAB00008781200200020704745
:106B500070B504000E001500FFF7F8FF044BA40009
:106B60001B199B5DFF2B02D02B540130C0B270BDAE
:106B7000000E002010B5024BDB68984710BDC046E0
:106B8000BCB1000870470000F8B50C0015001E00ED
:106B9000FFF7F8FF002805DB034B2A005F682100A0
:106BA0003300B847F8BDC046BCB1000810B5024B71
:106BB0009B68984710BDC046BCB10008F0B585B0D1
:106BC00005000E001700FEF7CDFE009000283DD016
:106BD0000024A74205D13100280002AAFFF7B8FF20
:106BE0000400274D2B781B19082B1DDD0826611C7E
:106BF000361B320049192348FDF782FC2100093178
:106C0000320049192048FDF77BFC61001931720000
:106C100049191E48FDF774FC2100113132001C484F
:106C20004919FDF76DFC2E70002211002B78144DD0
:106C30009C46184B01936346D0B2C318DBB2844222
:106C400006D8002902D00E4B64441C7005B0F0BD7C
:106C500002A9575C019E39000831490071180E796C
:106C60004979E81841724670477400200C335B0084
:106C7000EB18591C5870013248700099DBE7C04688
:106C8000791200207A120020821200209212002035
:106C90008A120020000E00200D4B10B51B681B054A
:106CA0009B0F022B0CD0032B0ED00022012B04D003
:106CB00011001420FFF77AFF10BD14211000F9E72E
:106CC000142200210800F5E714221100FAE7C0465B
:106CD000D0150020012070470120704710B5FFF744
:106CE000FBFF10BD10B5FFF7F5FFFFF7F7FF10BD75
:106CF00082B08000C0B201AA10700430031CC0B280
:106D0000112800D911231078DBB21B02184302B0FE
:106D100070470000F0B58BB0039000780591FFF745
:106D2000E7FF03041B0E07AA02932D4B10801A796C
:106D30002C4B52081B6801329BB253431B12DBB22F
:106D40000493C4B2284B6700FF18029AE3B29A4238
:106D500006D81023002093424041C0B20BB0F0BDD2
:106D6000224B039A1B5D52781A4236D03D7D7E7DC0
:106D7000703D203EADB2B6B230002B0070436B4385
:106D8000C01880B2FFF776FC32B2049E29B203002D
:106D9000134D174800966E78457880782D0235435C
:106DA00000042843059DA84709AB1870020400029F
:106DB000120E000E5A7098700998FFF78DFE0204AB
:106DC000030208A9120E1B0E08704A708B70D2B213
:106DD000C1B2DBB22000FFF7D7FE02370134B4E7BF
:106DE000C8150020D0150020000E0020360E00200F
:106DF000C915002010B50249FFF78CFF10BDC04631
:106E00002568000810B50249FFF784FF10BDC04691
:106E1000A56A0008F0B5070089B000780391FFF774
:106E200067FF05AB06041880330E0193274BC4B2ED
:106E30001A79274B52081B6801329BB253431B122D
:106E4000DBB20293234B6500ED18019AE3B29A423C
:106E500006D81023002093424041C0B209B0F0BDD3
:106E60001D4B7A781B5D1A422CD0184B1B485B785F
:106E70006A7D9C4666464378297D80781B023343B1
:106E8000203A7039000409B212B21843039E029BE3
:106E9000B04707AB187002040002120E000E5A70C1
:106EA00098700798FFF718FE0204030206A9120E55
:106EB0001B0E08704A708B70D2B2C1B2DBB22000D8
:106EC000FFF762FE02350134BFE7C046C815002057
:106ED000D0150020000E0020360E0020C91500201D
:106EE00010B50249FFF796FF10BDC0465368000871
:106EF00010B50249FFF78EFF10BDC046776A000843
:106F0000F0B5060087B000780F00FFF7F1FE03AB85
:106F10001880214B05041A79204B92081B68023215
:106F20009BB253431B12DBB22D0E0193C4B2E1B2EC
:106F30008D4206D810230020AB424041C0B207B0BA
:106F4000F0BD174B72781B5D1A4223D0154A124BC5
:106F5000587853781B0203439078019A0004184331
:106F6000B84705AB187002040002120E000E5A70EA
:106F700098700598FFF7B0FD0204030204A9120EF1
:106F80001B0E08704A708B70D2B2C1B2DBB2200007
:106F9000FFF7FAFD0134CAE7C8150020D01500201C
:106FA000360E0020C915002010B50249FFF7A8FFD2
:106FB00010BDC0460167000810B50249FFF7A0FFE9
:106FC00010BDC0464567000810B50249FFF798FF9D
:106FD00010BDC0466967000810B50249FFF790FF71
:106FE00010BDC0469D67000810B50249FFF788FF35
:106FF00010BDC046D167000810B50249FFF780FFF9
:1070000010BDC04695690008F0B507008BB0007848
:107010000591FFF76DFE07AB06041880330E02934F
:10702000284B294A1B7915689B080133ADB25D4393
:107030002D12EDB2C4B228004030C0B2FFF73CFBC5
:10704000803843B228000393FFF736FB803843B201
:107050000493029AE3B29A4206D810230020934286
:107060004041C0B20BB0F0BD184A7978125D1142B0
:1070700026D01749134A009550784A78059E120287
:1070800002438878039900041043049AB04709AB7F
:10709000187002040002120E000E5A7098700998BF
:1070A000FFF71AFD0204030208A9120E1B0E087056
:1070B0004A708B70D2B2C1B2DBB22000FFF764FD20
:1070C0000134C6E7C8150020D0150020360E002078
:1070D000C915002010B50249FFF796FF10BDC04644
:1070E0009D68000810B50249FFF78EFF10BDC0462D
:1070F000E968000810B50249FFF786FF10BDC046D9
:1071000035690008F0B591B0089008780B920991A4
:10711000FFF7EEFD03041B0E0793464B0DAA1B78E9
:10712000C7B20A93444B10807A00D318079A05938C
:10713000FBB29A4206D81023002093424041C0B2CD
:1071400011B0F0BD3D4B099ADB5D52781A422BD04D
:10715000002403223A490EA8FDF7D2F9089B089AA9
:107160000393344BD3180493049B0A9A013304937A
:107170006B461B7B9A421BD8324BDB7801335C4356
:107180000EAB24129C700E98FFF7A6FC02040302BB
:107190000FA9120E1B0E08704A708B70D2B2C1B2CA
:1071A000DBB23800FFF7F0FC059B01370233BDE787
:1071B000059B1D7D049B1B78ED1AABB20693059BC6
:1071C00006985E7D049B40431B7AF61AB6B23300E4
:1071D0007343C01880B2FFF74DFA1A4A03001279C0
:1071E0000132111CFF2A00D9FF210398114A0C30EB
:1071F00040001218507892780131120289B202438D
:107200004A4369460EAD1212AC7090B21824095F61
:1072100032B20B9C00900E98A04703041B0E6B70BB
:10722000039B0402240E0133AC702870E4B2039374
:107230009AE7C046D4150020000E0020360E00202C
:10724000C9150020C8150020064B10B51C78010098
:10725000013C054A201C002C00DA0020C0B2FFF7D8
:1072600051FF10BDD4150020DF690008F7B50700F5
:107270000078FFF73DFD6B46164A1880164B060452
:1072800059785378C4B290781B020B43000418431A
:10729000FFF722FC01AD0304287000021B0E000E54
:1072A000360E6B70A870E3B29E4205D81023002002
:1072B000B3424041C0B2FEBD084B7A781B5D1A4212
:1072C00005D02000AB786A782978FFF75DFC01349F
:1072D000E9E7C046C9150020C8150020360E002079
:1072E00070B5434B05001978424A0123814207D10A
:1072F000137841499B0709789B0F5B1A591E8B41F4
:107300003E4CA370537962789A4205D00022110056
:1073100010006370FFF74AFC0F2D0CD8681E0E2872
:107320000DD8FCF765FF15272B2F33373B3F43471D
:107330004B4F53575B00FF2D54D000200BE0A37838
:10734000002BFAD0002211001000FFF72FFCF4E709
:107350002000FFF78BFF237801332370002846D1EC
:107360000222274B1A70A278002A40D1002D3ED16C
:1073700003323BE02000FFF717FEECE72000FFF7A9
:107380001BFEE8E72000FFF71FFEE4E72000FFF701
:1073900023FEE0E72000FFF727FEDCE72000FFF7F1
:1073A00029FDD8E72000FFF79BFDD4E72000FFF779
:1073B0009FFDD0E72000FFF725FDCCE72000FFF779
:1073C00089FEC8E72000FFF78DFEC4E72000FFF725
:1073D00091FEC0E72000FFF70FFEBCE72000FFF79B
:1073E00033FFB8E7FFF758FC0222054B1A7070BD57
:1073F000580E0020C8150020590E0020550E002000
:10740000540E0020012070470120704710B5FFF78F
:10741000FBFF10BD37B500780138C0B2FFF768FC3C
:1074200005042D0EC4B229002000FFF7EBFF290050
:107430002000FFF7EBFF37BDF7B5424D286801F09C
:107440001EF9040001F064F9286000252F003E4B6E
:1074500001001B789C4618003C4B1B1B0193EBB2B0
:107460009C450ED8002F01D0374B1870384C394F3F
:1074700025783E78032D46D82800FCF7B9FE1D3745
:1074800045512B00304A0C335B00D2189378567864
:107490001B023343019E9E4204D201270138C0B231
:1074A0000135DCE71B199EB20096FF26334053706E
:1074B000009B1E0A9670F3E70022274B27481A709C
:1074C000274B293219602049FDF71AF8254B1B7804
:1074D000002B07D1244B03221B781D0015401342BB
:1074E00000D09D0801233D7023700CE03000FFF7B1
:1074F000F7FE002E07D02378022B01D1FFF7F2FB15
:107500001548FFF787FFF7BD184B194A1E70164B39
:107510001B789B079B0F1370FFF72CFB0323E3E7FC
:10752000144D2B78002B04D00F48FEF7C5F900232B
:107530002B700B4B186801F0A2F80F28E3D9002339
:10754000D2E7C046A412002079120020FFFF0000FD
:10755000540E0020A8120020550E0020D415002043
:10756000D0150020A9120020C8150020580E0020B8
:10757000590E00207812002070B500250F4B1B68B3
:1075800098470F4B1022FF210E481D70FCF764FF37
:107590000D4B1022FF210D481D70FCF75DFF0123EC
:1075A0000B4E0C4C30002370FEF782F933782570B7
:1075B000032B01D8FFF7B0FA70BDC046BCB100087C
:1075C000D4150020ED150020791200209212002021
:1075D000C81500207812002070B5041E0B4D12D083
:1075E0002E78002E0FD13000FFF77AFE084B094AA3
:1075F0001E70094B1B789B079B0F1370FFF7BAFA9D
:107600000322064B1A702C7070BDC046A9120020D0
:10761000580E0020590E0020C8150020540E0020DE
:10762000012310B5044A11784B4013700022034B1C
:107630001A70FFF7F7F910BDC8150020540E00208E
:1076400010B50120FFF7ECFF10BD0000074B03222F
:10765000197808001040114201D1054A1070032228
:1076600019789143023A0A431A707047C8150020EE
:10767000540E002010B5FFF7E9FF0120FFF7D2F903
:1076800010BD0000054B1A78920702D00021044A71
:10769000117003211A788A431A707047C8150020A8
:1076A000540E002010B5FFF7EDFF0120FFF7BAF9E7
:1076B00010BD0000020008000C4910B50B789B07B4
:1076C00012D00123002A04D00E339A4201D830335D
:1076D000134003240A789B002240134300220B70BE
:1076E000034B1A70FFF79EF910BDC046C815002065
:1076F000540E0020054B0100187810B580080130A9
:107700000F2800D90120FFF7D5FF10BDC8150020B4
:1077100010B50120FFF7EEFF10BD0000064B010081
:10772000187810B580080138C0B2002800D10F3099
:10773000FFF7C0FF10BDC046C815002010B50120DE
:10774000FFF7ECFF10BD000070B5084C05001800F5
:1077500023789B0709D06570A170131CB42A01D946
:10776000034B1B78E370FFF75DF970BDC81500206F
:10777000B0B1000810B503000348C27881784078A2
:107780000830FFF7E1FF10BDC815002010B501203B
:10779000FFF7F0FF10BD000010B503000448C278E9
:1077A00081784078083880B2FFF7CEFF10BDC04620
:1077B000C815002010B50120FFF7EEFF10BD000036
:1077C00010B5030006488478C2781034211CFF2CC1
:1077D00000D9FF214078C9B2FFF7B6FF10BDC046FF
:1077E000C815002010B50120FFF7EAFF10BD00000A
:1077F00010B5030006488478C278103C211C002C88
:1078000000DA00214078C9B2FFF79EFF10BDC046E4
:10781000C815002010B50120FFF7EAFF10BD0000D9
:1078200010B503000648C17810310A1CFF2900D9A1
:10783000FF228178D2B24078FFF786FF10BDC046A4
:10784000C815002010B50120FFF7EAFF10BD0000A9
:1078500010B503000648C17810390A1C002900DA67
:1078600000228178D2B24078FFF76EFF10BDC0468B
:10787000C815002010B50120FFF7EAFF10BD000079
:1078800010B5054A13791033191CFF2B00D9FF21BD
:107890001171FFF7C7F810BDC815002010B5012001
:1078A000FFF7EEFF10BD000010B5054A1379103B3D
:1078B000191C002B00DA00211171FFF7B3F810BD7D
:1078C000C815002010B50120FFF7EEFF10BD000025
:1078D00010B5054A05495379FF3B5C426341CB5CD7
:1078E0005371FFF79FF810BDC8150020B1B1000813
:1078F00010B50120FFF7ECFF10BD000010B5054AE0
:1079000005495379FF3B5C426341CB5C5371FFF700
:1079100089F810BDC8150020B1B1000810B50120CC
:10792000FFF7ECFF10BD000010B50121044A054827
:1079300002F007FC02F05AFD034802F063FD10BD9F
:107940001A07000000080048CCB2000830B5032434
:10795000034D60432C002D186970AB70225430BD6C
:10796000FD150020F8B505000E00170000242000CA
:107970003B00320029000134FFF7E8FF112CF6D15B
:10798000F8BD000010B533220120024902F04EFE7E
:1079900010BDC046FD15002010B5FDF76DFF10BDF0
:1079A00010B50020FEF758FB0123184010BD10B59C
:1079B000FEF706FCFA20800001F061FEFEF700FCF5
:1079C000FFF7EEFF002803D0FFF7E6FF00F0E4FE2C
:1079D00010BD10B5FFF7EBFF10BD0000124A10B547
:1079E00001230C00904215D1FDF7CEFD6179030013
:1079F0000E4A002910D0AA210B401900481E8141CF
:107A000029201170002B00D00C3000F001FDFDF793
:107A100081FE0023180010BD13782920002B00D010
:107A20000C3000F011FDF2E7167C0000AA120020D5
:107A300070B505004879002800D1CCE0674BEB1801
:107A4000222B00D9ABE0664C2000FDF729FF654BE7
:107A5000E818212812D8FCF7CBFB3FAD48191C4B86
:107A60001F4E5728A52B5A2E5D8731608F37676DC3
:107A7000225125543B6A7A99A31543B501232278F4
:107A800013434FE00823627813432CE0022322784B
:107A9000F6E704232278F3E708232278F0E70123AE
:107AA0006278F1E702236278EEE710232278E7E7B5
:107AB00020232278E4E740232278E1E7FDF7BCF9B0
:107AC000802322785B42DBE70C2322789A43D7E7B6
:107AD000032362789A43D7E701222378934321E076
:107AE000082263789343637053E002222378F5E71A
:107AF00004222378F2E708222378EFE70122637853
:107B0000F0E702226378EDE710222378E6E72022EF
:107B10002378E3E740222378E0E7FDF78DF97F2221
:107B200023781340237034E00C222378D6E7032215
:107B30006378D7E70122042023785907C90F8A43C5
:107B4000910083430B430821D2008B4398E7012126
:107B500008006378DA07D20F904302228B43034375
:107B6000410093430B43BEE7012223785906C90F16
:107B70008A4392014021E8E7FDF75EF9012223786C
:107B8000D9094A407F21D2010B4079E70120FDF756
:107B900097FE2000FDF788FEFDF74EF9002070BD2E
:107BA0000020F4E701222378D906C90F8A43120185
:107BB0001021CAE7012108002378DA07D20F904389
:107BC0000200C2E7012263781907C90F8A4308211E
:107BD000D2008B4358E70120E1E7C0460090FFFF49
:107BE000BA150020FF8FFFFFB523434398B2002B47
:107BF00007DA803B1BB2D817C0B2C018001240B2DF
:107C00007047803000040016FAE7000010B5164BEC
:107C10001B78DA070AD5154B1B785B007F2083425F
:107C200003D87E38002B00D0D8B210BD9A0703D5F8
:107C30000E4B1B789B00F1E75B0703D50B4B1B78C2
:107C4000DB00EBE70A4B187800280BD0094B1978BA
:107C5000064B1B788842F3D25843C000FCF722FB46
:107C600083B2DBE70823DFE7B21200205F0E0020BB
:107C7000B11200205E0E002010B5154B1A780123BA
:107C80001A4207D0134B1B789B080120002B0ED003
:107C9000D8B20CE0910703D50E4B1B785B08F4E7D4
:107CA000520705D50B4B1B787F208342EDD910BDC1
:107CB000094A10780028EBD0084B1978054B1B783F
:107CC0008842F1D25843FCF7EDFA83B2ECE7C046A4
:107CD000B21200205B0E0020B01200205A0E0020CD
:107CE0000300CD3810B5122810D8FCF781FA0A101D
:107CF000141A32323232323232321E23282E3C42B1
:107D00004600FFF783FF1F4B4042D87010BDFFF7BE
:107D10007DFF1C4BF9E7FFF779FF1A4B4042987043
:107D2000F4E7FFF773FF174BF9E7FFF7A5FF154BD4
:107D30001871EBE7FFF7A0FF124B4042F8E7FFF79F
:107D40009BFF104B40425871E0E7FFF795FF0D4B4A
:107D5000F9E70122D13B9A400A4913000A00497809
:107D60000B435370D2E70123074A11780B4313707A
:107D7000CCE7054A02231178F8E7034A0423117877
:107D8000F4E7C046B3120020B212002030B504213F
:107D9000032502240522334B5D571C5759569A562A
:107DA000CD2814D1002D01DA0022DA70D9789A7822
:107DB0000A4351B2002A01D12B4A11701A795B791A
:107DC00013435AB2002B01D1284B1A7030BDCE2874
:107DD00002D1002DE8DCE9E7CF2804D1002CE5DA58
:107DE00000229A70E2E7D02802D1002CF8DCDDE70F
:107DF000D92804D10029D9DD00221A71D6E7DA2862
:107E000002D10029D2DAF7E7DB2804D1002ACDDA43
:107E100000225A71CAE7DC2802D1002AF8DCC5E743
:107E2000D1380E28C2D8FCF7D9F908080808080884
:107E30000808C1C1C1C10E141800012181405A783F
:107E40008A435A70B2E7012009490A7882430A70CE
:107E5000ACE7074902200A78F8E7054904200A78C8
:107E6000F4E7C046B3120020B1120020B012002087
:107E7000B212002010B500F089FC03000748827898
:107E8000C1780A4301D0064A1380027941790A4336
:107E900001D0044A138000F0E7F910BDB3120020AE
:107EA000AE120020AC120020062210B500210548B9
:107EB000FCF7D2FA0023044A1370044A1370044AF0
:107EC000137010BDB3120020B1120020B0120020B8
:107ED000B21200200222825603000120002A0BD198
:107EE00003229A56002A07D104229A56002A03D167
:107EF00005201856431E98417047000037B55F4C67
:107F0000062221006846FCF7FBFA00236A46A370AC
:107F1000E370237163716B46D2789B7813430BD067
:107F2000574B188800F0A4FB56490B78002B28D03B
:107F3000554A127890422DDC6B466A461B7952797D
:107F400013430BD0514B188800F092FB50490B782B
:107F5000002B53D04F4A1278904258DC69462000DB
:107F600000F0AAFA002804D12000FFF7B3FF002890
:107F700001D0FFF77FFF062269462000FCF7C0FA18
:107F800037BD454A15780A226A439042D4DD013351
:107F90000B7001E0FF2BFAD16B4602255D57002DD7
:107FA00007D0FFF733FEFF23002D00DDFE3B4343E8
:107FB000A3706B4603255D57002D07D0FFF726FE03
:107FC000FF23002D00DDFE3B4343E37002202056DB
:107FD0000028B1D003256557002DADD0FFF704FE72
:107FE000002800D10130A0702800FFF7FDFD002817
:107FF00001D0E070A0E70123E3709DE7274A1578E0
:108000000A226A439042A9DD01330B7001E0FF2B85
:10801000FAD16B4604255D57002D07D0FFF72CFEE3
:10802000FF23002D00DDFE3B434323716B460525F6
:108030005D57002D07D0FFF71FFEFF23002D00DD49
:10804000FE3B4343637104202056002800D185E79E
:1080500005256557002D00D180E7FFF7C5FD0028F5
:1080600000D1013020712800FFF7BEFD002801D0AB
:10807000607173E70123637170E7C046B31200209B
:10808000AE120020B1120020600E0020AC120020C1
:10809000B01200205C0E0020610E00205D0E00205A
:1080A000F8B5140042791D0006AB1F78274B002A53
:1080B00011D01C7000F06AFB254B18802300203380
:1080C000DBB2072B06D80723012023409840C0B21B
:1080D000FCF77EFCF8BD1E78A6422DD11C4B1888FB
:1080E00000F0C6FAC72827D82C002034AE4215D09D
:1080F00033002033DBB2072B06D8072301201E40B4
:10810000B040C0B2FCF76CFCE3B2072B06D80723E3
:1081100001202B409840C0B2FCF75AFC3800E4B272
:10812000FCF74EFC072CD5D8072301201D40A840A2
:10813000C0B2FCF755FCCDE723002033DBB2072BA0
:10814000C8D8072301201C40A040F1E7BC12002042
:10815000BA120020204B13B5C0180C00062833D8E3
:10816000FCF746F8141A040E20262C002623009350
:10817000BB331A0019492000FFF792FF002016BDFB
:1081800027230093BE331A001549F4E72623E02283
:1081900000931449BB33EEE72723E42200931249EE
:1081A000BE33E8E72623E22200931049BB33E2E71F
:1081B0002723E62200930E49BE33DCE72823E5227D
:1081C00000930C49273BD6E74B79002B02D00022C5
:1081D000094B1A700120D2E7E883FFFF1A7C0000E8
:1081E0001B7C0000187C0000197C00001C7C000037
:1081F0001D7C00001E7C0000BC120020014B18609A
:108200007047C046C41200207047704710B500F098
:10821000C9F9013843425841C0B210BD044B10B5F2
:108220001B68181E03D01B68181E00D0984710BD8D
:10823000C4120020044B10B51B68002B03D05B68F0
:10824000002B00D0984710BDC4120020054B10B57C
:108250001B68002B05D09B68002B02D00622027001
:10826000984710BDC4120020054B10B51B68002BA9
:1082700005D0DB68002B02D002220270984710BDA7
:10828000C412002007B50B4A0300118881420FD0A9
:108290001080094A1268002A0AD01269002A07D001
:1082A000032101A8017069464B711B0A8B7190472D
:1082B00007BDC046C0120020C412002007B50B4AFB
:1082C0000300118881420FD01080094A1268002AE9
:1082D0000AD01269002A07D0042101A8017069465A
:1082E0004B711B0A8B71904707BDC046BE12002020
:1082F000C41200200E4B10B51C68FFF787FF023434
:108300000622002807D00B4B1B787F2B03D90A4B82
:1083100018321C6802340020A218D2B22178002939
:1083200001D00130C0B20134E1B29142F6D110BDAA
:108330004C0E0020BA150020480E002010B5041E77
:1083400021D0FFF763FF002813D0114B1B787F2B40
:108350000FD9E208EF2C16D80E4B01201B689B1892
:108360009A780723234098401040431E9841C0B29A
:1083700010BD094B1B689A1C08331178A14204D028
:1083800001329A42F9D10020F2E70120F0E7C0461D
:10839000BA150020480E00204C0E002001230022B8
:1083A00070B55B42851CAC5C8C420BD05E1C02D16C
:1083B000002C00D153B20132062AF4D15A1C01D04C
:1083C000C318997070BD002210B5831C08301C784A
:1083D0008C4200D11A7001338342F8D110BDCB0812
:1083E000EF2907D8C01807231940063B8B40827835
:1083F000134383707047CB08EF2907D8C0180723B1
:10840000012219408A4083789343837070470000AB
:1084100010B50400FFF7FAFE002809D0074B1B78BF
:108420007F2B05D9064B21001868FFF7D8FF10BD38
:10843000044B21001868FFF7B1FFF8E7BA150020D8
:10844000480E00204C0E002010B50400FFF7DEFEA1
:10845000002809D0074B1B787F2B05D9064B21003C
:108460001868FFF7C8FF10BD044B21001868FFF71C
:10847000AAFFF8E7BA150020480E00204C0E002095
:1084800010B5FFF7C3FE00280BD0084B1B787F2BDD
:1084900007D91E22064B186802300021FBF7DCFFCB
:1084A00010BD044B062218680230F6E7BA1500200A
:1084B000480E00204C0E002010B54A784478030086
:1084C0000120944223D102229A56002A03D002248A
:1084D0000C5794421BD103229A56002A04D003243D
:1084E0000C570120944212D105229A56002A04D03A
:1084F00005240C570120944209D100201B795BB25E
:10850000834204D004200856C01A431E984110BD6F
:1085100082B002B0704707B5FFF7FAFF07BD000051
:1085200007B505490130C870042201A8FBF7E8FF30
:108530000198FFF7F0FF07BD620E0020032307B587
:108540000449042201A8CB70FBF7DAFF0198FFF77A
:10855000E2FF07BD620E002010B5FFF7E1FF10BD7E
:10856000012307B50449042201A8CB70FBF7C8FF1B
:108570000198FFF7D0FF07BD620E002010B5FFF78E
:10858000EFFF10BD07B5431E9841054904228870CE
:1085900001A8FBF7B5FF0198FFF7BDFF07BDC04677
:1085A000620E0020014B98787047C046620E002092
:1085B00007B505490422487001A8FBF7A1FF0198FF
:1085C000FFF7A9FF07BDC046620E0020014B587897
:1085D0007047C046620E002007B5054904220870A6
:1085E00001A8FBF78DFF0198FFF795FF07BDC04677
:1085F000620E002070477047704710B5FFF7FCFF10
:1086000010BD704710B5FFF7FCFF10BD70B500241A
:10861000FFF7F0FF2500FDF7D3FDFFF7ECFFE0B219
:10862000FDF71AFD044B1855431E984101340543CC
:10863000052CF4D1280070BDC8120020044B1A5C30
:10864000012088401040431E9841C0B27047C04688
:10865000C812002010B50C00002A05D10121A1404C
:10866000024B1A5C8A431A5410BDC046C81200203F
:1086700010B5040000F08AF8001B80B210BD10B5E0
:10868000040000F045F8001B10BD10B504001022D6
:108690000021FBF7E1FE200010BD10B501F066F8E7
:1086A00000F04AFE10BD000010B5FCF76DF802485E
:1086B00000F0E5FF10BDC046A406000010B5FCF7B1
:1086C00079FFFCF78DFFFFF7DBFEFFF7EDFB0020E6
:1086D000FFF7D8FD0020FFF7F1FDFCF762F810BDB1
:1086E00072B6054BDA69054B1A600022044B1A601A
:1086F000044B1A6062B6704750160020D812002052
:10870000D4120020D012002010B5FFF7E9FF10BDF1
:1087100070B500F02BFE144B144D1549DC690E6842
:108720002B68144AE41AA64208D9134EA419134E12
:108730009B192B601368124D5B19136015680C6050
:1087400000F01CFEFA22002320009200002102F01B
:1087500029FC00230B4A8018594100230A4AFBF7E1
:10876000F7FD281870BDC04650160020D812002012
:10877000D4120020D0120020E006010020F9FEFFF4
:1087800088598F029F860100A086010010B5FFF76F
:10879000BFFF80B210BD0000064B074A1A60BFF34E
:1087A0004F8FBFF34F8F054B054ADA60BFF34F8FF2
:1087B000C046FDE7F0010020A1D7324B00ED00E0FC
:1087C0000400FA05BFF34F8F034B044ADA60BFF38E
:1087D0004F8FC046FDE7C04600ED00E00400FA05FB
:1087E0007047000001007F2280310B7870B51A407D
:1087F0000400212A45D15AB2002A1BDA4A78022AFB
:1088000015D0032A04D0012A14D100F0FFFB70BD5B
:108810004D790A792D0215430CD1FFF7C3FE2F4B7A
:10882000E567187063670123A3670120EFE700F095
:1088300011FDECE74A780A2A1CD00B2A0ED0092A2F
:108840001FD14A79087912020243012A19D8244B10
:1088500063670223A367234BE367E6E74B790A7953
:108860001B02134302D18878FFF78CFE0023636755
:10887000A367F1E7C878FFF7AFFE200000F012FD14
:10888000C5E760229343812B02D14B78062B12D08F
:10889000154B164DDB6F002B05D1FC35AB69002B5A
:1088A00006D10020B3E7200098470028F5D0BCE7A8
:1088B00020009847ABE74B790A7960681B0245684E
:1088C00013432000CA788978A8470028E9D0436874
:1088D00063670368A3670023BEE7C046E412002075
:1088E000E81200202D890008880E0020800E00204C
:1088F000002370B50B4C80306360C279817912021D
:108900000A4341790579090229438578C078064BE5
:108910000002284300F0B2F920606068002800D00F
:10892000200070BDDC120020E0120020030010B512
:1089300080339979DB79074A1B0210780B43022BAD
:1089400004D1012801D0062802D15078FFF730FE6B
:1089500010BDC046E812002010B50F24054A11785A
:108960004B1C2340044C24789C4202D0034C1370CF
:10897000605410BD40160020411600203016002023
:10898000080010B5052921D8FBF732FC1620031684
:10899000162172B6134800F020FA134800F01DFAB1
:1089A00062B6124B1B78002B02D00520FFF7D4FFD4
:1089B0000220FFF7D1FF09E0FFF7CEFF72B60948AA
:1089C00000F0F5F9084800F0F2F962B610BD72B691
:1089D000044800F0FFF9044800F0FCF962B60520F5
:1089E000E7E7C046800E0020100F0020EA120020AA
:1089F000102210B500210448FBF72EFD0022034B86
:108A00001A70034B1A7010BD30160020401600205B
:108A100041160020F8B50F2501240021234B244ADC
:108A20001E781378B34233D1002900D01370F8BDFB
:108A30001370204B1C70204B19780800431E98417E
:108A4000C0B2FFF77BFDE8E713700022194B1A70E4
:108A5000FFF734FE184B19780800431E9841C0B246
:108A6000FFF77AFDD9E71370134B19780800431EFE
:108A70009841C0B2FFF754FDCFE700211370080002
:108A8000F8E71370FFF76CFD2000FFF77BFDC4E7EC
:108A900018000A4F0133385C21002B400528C1D84B
:108AA000FBF79CFBEFC0E1EBC6D2C04640160020AE
:108AB00041160020EA120020431700203016002043
:108AC00070B5104D0400280000F050F9280000F0A7
:108AD00061F90D4D280000F049F9280000F05AF91D
:108AE00000230A4D20002B7000F062FF084800F0C0
:108AF000C6FD2000074900F04AFF01232A781343EE
:108B00002B7070BD800E0020100F0020385C0040DC
:108B100088130000D4B200089023434307B50448EB
:108B2000181800230093034B00F0B6F90EBDC046A1
:108B3000800E00201027000010B50400FFF732FD62
:108B400008222100002803D10130FFF7E5FF10BD06
:108B50000120FAE710B5010020220020FFF7DCFF1A
:108B600010BD10B5010006220020FFF7D5FF10BD93
:108B700010B5010003220020FFF7CEFF10BD10B595
:108B8000FFF72EFE10BD7047704710B5FFF7F7FFD7
:108B900002F0C8F9FFF7F7FF10BD10B502F000FAB8
:108BA000FFF7F2FF10BD10B5FFF7E8FC10BD0000A5
:108BB00010B5FFF71DFF0348FFF782FF024800F0E2
:108BC0005EFD10BDB81600208813000010B50248E5
:108BD000FFF714FB10BDC046680E002070B5FFF70C
:108BE00019FF0C4C02252378052B0ED070BDFFF722
:108BF0005BFDFFF70BFD002807D0230088331B889F
:108C00002B4202D0200000F065FF2378052BEED028
:108C1000ECE7C046B816002010B500F0ADFA10BD64
:108C20007FB5134B1C78002C20D101220F256846FC
:108C30001A70FFF72AFD23000E490F4C68465A10A0
:108C4000805C5A000609A65D8A18967000262840A6
:108C5000D6705A1C205C52008A1802339070D6706D
:108C6000202BEBD122330B703F3B4B707FBDC046B6
:108C7000EB120020EC120020E4B2000870B51D00D9
:108C8000030A032B12D00AD8012B35D0002214007E
:108C9000022B01D11E4C3B3210002C6070BD212BE9
:108CA00018D0222B1FD000221400F5E70022C0B2FA
:108CB00014000328F0D8FBF79BFA220205081022C3
:108CC000144CE9E70E22144CE6E7FFF7A9FF134C1A
:108CD0002278E1E7002915D0002214000129DBD118
:108CE0000F4C0932D8E700290FD0002214000129C7
:108CF000D2D10C4CB632CFE712220B4CCCE7042277
:108D00000A4CC9E709220A4CC6E74422094CC3E7CA
:108D10001BB3000805B30008F5B20008EC120020F0
:108D200046B3000868B3000856B3000817B300083C
:108D30002DB300081EB4000837B5446B226F1378BA
:108D4000042B12D1250074352978033B8B401289FE
:108D50001A420AD1200001A900F03EFD021E04D0F3
:108D60002978019B206F00F0A2FE37BD1FB50300DC
:108D70005C33C364064B021D0193836F0290009322
:108D80000121C36FD26F00F001FD05B000BDC046E8
:108D9000398D000872B6030074331B78026F0B33F1
:108DA0009B00985000238830037062B670470123FF
:108DB000022110B504000372494200F093FC200028
:108DC0008C3400F0FBFC2368002B02D0DA681868B2
:108DD000904710BD0023037270470300020010B5D6
:108DE0000400743319783832006F00F009FE200057
:108DF00000F0E4FC0023237210BD0B000B339B003A
:108E0000F7B51C5805000E00002C44D072B62300A4
:108E1000002288331A70226963699A4202D1E3689A
:108E2000002B19D1B31C9B00EB185B685B691B68B6
:108E3000002B11D027008C373B68002B09D001A9EB
:108E4000200000F0C9FC01003868019A83680068BE
:108E50009847200000F0CEFC200001A900F0BCFCE7
:108E6000019B021E12D1B31C9B00EB185B681A68B1
:108E7000022A0FD15A69116800290BD01A8A0B00F7
:108E8000013A1340114205D12A00803231002800F6
:108E900000F00DFE62B6F7BDF7B51D0008AB1B78FC
:108EA000040016000091019372B6036F1B78042B27
:108EB00002D062B60020FEBD070088373B78002B49
:108EC00003D001356B425D416D4262B62B0032002A
:108ED0002000009900F0CFFC864214D972B64342BC
:108EE00058413B78022118430123387049422372CC
:108EF000200000F0F7FB200000F060FC002323724C
:108F000000F030FBE1E7019B002B01D00120D2E70C
:108F1000200000F0EDFCF9E7030072B60169426938
:108F2000002091420BD1DA68824208D01A6F743364
:108F30001B7801309840138918404342584162B66B
:108F400070470000006810B5002806D0034B82640B
:108F5000DB6943600830FBF7D3FA10BD50160020E0
:108F60000168130010B5002906D08A6C08331A6412
:108F700008311800FBF7C4FA10BD036810B50400EF
:108F8000002B09D018009A6C00210830FBF764FA16
:108F9000002223681A605A6010BD00000B7810B5DB
:108FA000082B0AD89B001858002806D0034B82646F
:108FB000DB6943600830FBF7A3FA10BD50160020B0
:108FC000030010B51000082909D88900C9580029E4
:108FD00005D08A6C083002640831FBF791FA10BDA5
:108FE00070B50500040024352368002B09D0180053
:108FF0009A6C00210830FBF72FFA002223681A60D0
:109000005A600434AC42EFD170BD00000200F8B5E4
:109010008032137904000026012B17D89178082993
:1090200014D80B4AD25C012A10D890235343094A22
:109030009B58B3420AD0084D5F6818682A00B847A9
:10904000064BE6676367AB6C0136A3673000F8BD7B
:109050007C0E00200C0F002040140020481400203B
:109060000368002B07D091001960511E8A41024B02
:1090700019780A431A7070478C1400200368181E70
:1090800002D018688008C0B270470000036870B54D
:10909000002B01D1002070BD72B603681D685B68AB
:1090A00062B6002DF6D00B4A0024D069FA222100C6
:1090B000C01A9200002301F075FF0023064A8018B1
:1090C00059410023054AFBF743F9A8426441E0B245
:1090D000E1E7C046501600209F860100A0860100EF
:1090E0004B1E072B0BD889000B58002B07D0910083
:1090F0001960511E8A41024B19780A431A70704751
:109100008C14002003000020082906D88900CB58C1
:10911000181E02D018688008C0B2704770B50829C0
:1091200001D9002070BD890040180368002BF8D0D9
:1091300072B603681D685B6862B6002DF1D00B4AF9
:109140000024D069FA222100C01A9200002301F005
:1091500029FF0023064A801859410023054AFBF7DE
:10916000F7F8A8426441E0B2DCE7C04650160020A0
:109170009F860100A0860100304BF7B51B78002BBD
:109180004DD000252F0090226B4213402C4AD4581A
:10919000002C40D0002D28D1013572B6EBB20193DE
:1091A00020686369E9B29847431E9841074362B655
:1091B0002448FFF7B1FE002812D0A3692068E9B265
:1091C000984700280CD072B61F4E636832002068A2
:1091D000E9B2984762B600201C49B26CFFF79CFCCC
:1091E0000135092DD9D10125CDE772B6002163697A
:1091F00020689847019062B61548FFF78DFE002859
:1092000005D00021A36920689847002808D1019B58
:109210005A1E93411F43002DE5D0084B1F70F7BD28
:1092200072B6094E0021320063682068984762B622
:109230000649B26C0120FFF76FFCE8E78C140020B0
:109240000C0F0020800E0020F4130020FC130020DF
:10925000100F0020020070B5803213790400002541
:10926000012B16D89178082913D80B4AD25C012A11
:109270000FD890235343094A9B58AB4209D05A69EF
:1092800018689047064BE5671870636701231D0057
:10929000A367280070BDC0467C0E00200C0F002084
:1092A000F0130020020070B580321379040000250D
:1092B000012B14D89178082911D80A48C05C0128DC
:1092C0000DD89023434308481B58AB4207D0D278AF
:1092D0001E691868B0476567A567E567013528000E
:1092E00070BDC0467C0E00200C0F002070477047F8
:1092F000FEE70000F0B5082000240E494A680E6819
:1093000015008B68AB4210D8D51E0026AB4203D3A4
:1093100003339B1A9B089E00CB689219934207D88F
:10932000013810310028E9D1F0BD80CE80C5E9E7D1
:1093300010C2F3E764B40008012310B5064C237093
:109340000023636000F006FA0449054800F01AF9AA
:109350000223237062B610BD48160020F4B4000842
:109360005016002010B500F047F810BDEFF3108044
:10937000C30702D4EFF3058372B6704710B5C00778
:1093800004D4EFF30583DB0501D062B610BD00F015
:10939000E9F8FAE710B50A4C23699A6891420CD8AB
:1093A0005A6881600360426010609A685860521A7F
:1093B0009A6001235B42A36110BD1B68891AECE728
:1093C0005016002010B503610023C2604361FFF70F
:1093D000E1FF10BD036881689A6852189A6042687C
:1093E00013605A60002301220360024B52429A61CB
:1093F0007047C0465016002070B5114D114AEB69F8
:109400000133EB612B69934206D09A68013A9A6066
:109410002C69A368002B00D070BD226861680A60C7
:109420005160236062B62000E3682169984772B6F4
:1094300061690029ECD02000FFF7ACFFE8E7C046E7
:10944000501600206016002000238268037503690F
:109450001B6899689142FBD25A68036042601060B1
:109460005860704700238268037503691B68996818
:109470009142FBD85A6803604260106058607047A0
:1094800010B572B6087D052807D8FAF7B1FE0C06AC
:109490000603120E00228B691A6001235B4208004A
:1094A0008B61FFF7D1FF62B610BD8A699368013303
:1094B00093604A680B6813605A60EEE710B5FFF7D7
:1094C000C3FF10BD064B10B5D9680875186802684F
:1094D00053601A6001220275D860FAF75DFE10BD74
:1094E0005016002030B50D4B0400DD6887B04B1CD2
:1094F00010D02B0068460A4AFFF764FF2000FFF7F0
:10950000E1FF009B002B02D06846FFF763FFA869CC
:1095100007B030BDFFF7D6FFF9E7C0465016002070
:1095200081940008044BDA68196890688B68984247
:10953000804140427047C04650160020084B10B58D
:109540001C68D868226853601A6001222275DC60AA
:10955000FFF788FF01002000FAF71EFE10BDC0468D
:1095600050160020054B10B51A68DB6892689B689E
:109570009A4201D9FFF7E2FF10BDC0465016002005
:1095800030BFFDE770B5002504001A4B86B0856238
:1095900001630E00586000F0BBF823001033236114
:1095A000636101235B42A361134BE561D9692B0021
:1095B0000A00210022626362343120000F4A2460D5
:1095C0006460A560E562E565803300F01DF8012365
:1095D0000B4AE06003750092726803930192094B95
:1095E000B268684602920493059500F033F806B01D
:1095F00070BDC0464816002050160020E7B4000891
:10960000ECB400088195000802228B604B620023B5
:1096100008618A8208000B62CB6170478368020090
:109620001800116928384C3BC36019615169D26830
:1096300059610649196202230375002304498260B7
:109640004375016142620362C3617047B94100081A
:109650005016002010B5FFF7E1FFFFF72FFF10BDF8
:1096600010B5034BDB6898610F20FFF72BFF10BD8F
:109670005016002010B572B6FFF7F2FF10BD10B5FE
:10968000010072B60820FFF72DFF62B610BD03007F
:10969000006810B5002804D000221A608161FFF72D
:1096A0000DFF10BD084B10B5DB68002908D04268DB
:1096B00018605A60136043600420FFF713FF10BD69
:1096C00001204042FBE7C04650160020030000681E
:1096D00010B5834205D002681A6053608161FFF7BC
:1096E000EDFE10BD70B504000D002068844200D16D
:1096F00070BD036823605C608561FFF7DFFEF4E7FF
:10970000EFF30983203383F3098862B670470000C2
:10971000024A0349136A0B401362704700ED00E0F0
:10972000FFFF00FF10B50F300FD072B6EFF30984C2
:10973000203C84F3098880235B04E361FFF7F2FE99
:10974000024B002800D1024BA36110BDC7410008A5
:10975000CA410008024B034A1A60034A5A60704724
:10976000B0160020481700200028002010B500F097
:1097700071FC00F0E5FC00F0F9F8FFF70EFA00F0DC
:1097800001F810BD10B500F0BBFC10BD043310B5DE
:1097900001721900C3610023029C83626143C362AA
:1097A000039B51180363049B00604060C4604261E6
:1097B0000261816104624262436310BD036A10B5B5
:1097C000C360436A0221436103610023494283620B
:1097D000C362FFF787FF10BD4269036910B593426A
:1097E00004D10023C46818009C4201D1100008C8AD
:1097F0000B6010BDC36810B50133C269C360436913
:109800009B1882694361934201D3436A43610021FB
:10981000FFF75CFF10BD70B504000D00E368002B7E
:1098200007D0236900201A1DA262E2699B18E36237
:1098300008E0237A002B06D129002000FFF732FF31
:109840000028EBDA70BD02204042FBE7036910B547
:109850001960C268013AC260C2699B1882690361DB
:10986000934201D3436A036100238362036B002B9D
:1098700000D0984710BDF7B504000E000092019388
:1098800072B60027A36A002B08D120000199FFF7C8
:10989000C2FF002802D062B63800FEBDA06AE56AA9
:1098A000009B2D1ADB1B9D4200D91D00402D16D9AF
:1098B00031004022FAF724FEA36A40364033403795
:1098C000E26AA3629A4204D8E16920000439FFF7F2
:1098D000BDFF62B6009B9F42DED272B6D2E7310076
:1098E0002A00FAF70DFEA36A76195B197F19E7E7DC
:1098F00010B572B6836A002B06D00269043B991A30
:10990000934201D0FFF7A2FF62B610BD10B504006C
:10991000002101F0B7FA0021200001F09BFA6368F2
:109920001B68002B02D0062120009847A368044A38
:109930001340A36000237034A3600633237010BD6E
:10994000FEFFFEFF0200030010B504008232127811
:109950008A331A7001F076F863681B68002B02D016
:109960000121200098470323237010BD10B501F09A
:1099700037F810BD012310B5402204000370002108
:109980003030FAF769FD00236360A36010BD10B5A5
:10999000040072B62422416000210C30FAF75CFD0D
:1099A000200001F0DFF80223237062B6002010BD12
:1099B00070B5040072B601F01FF8002325000226DE
:1099C0006360013323700C35303476422B68002BF2
:1099D0000ED05869002803D031000C30FFF757FE35
:1099E0002B689869002803D031000C30FFF74FFE38
:1099F000002308C5A542E9D1FFF7B4FD62B670BDEA
:109A00008B1C9B0070B5C318050050690E00140034
:109A10005A60002803D014220021FAF71DFDA06926
:109A2000002803D014220021FAF716FD3100280087
:109A300001F012F870BD0000F8B50500070002261D
:109A4000040083680F4A1035134083603037764234
:109A50002B68002B0ED05869002803D031000C3041
:109A6000FFF715FE2B689869002803D031000C30F1
:109A7000FFF70DFE002308C5BD42E9D1200001F02B
:109A8000E3F8F8BD0100010070B501258D4044895F
:109A90002C4344818C1CA40004196468A4692360CD
:109AA0000023A2606360E36001F046F970BD70B509
:109AB00001258D4004892C4304818C1CA4000419C9
:109AC0006468646923600023A2606360E36001F05E
:109AD00055F970BD037870B5052B0BD10425FA201C
