:020000040800F2
:100000000006002091010008631700089301000812
:100010009301000893010008930100089301000870
:100020009301000893010008930100089301000860
:10003000930100089301000893010008AD0A00082D
:100040009301000893010008930100089301000840
:100050009301000893010008930100089301000830
:100060009301000893010008930100089301000820
:100070009301000893010008930100089301000810
:100080009301000893010008930100089301000800
:1000900093010008930100089301000893010008F0
:1000A00093010008930100089301000893010008E0
:1000B000930100089301000893010008B90D00089E
:1000C00072B6244880F30888234880F30988022008
:1000D00080F31488BFF36F8F00F06EF901F08CF994
:1000E0001E481F491B4A914202DA08600431FAE7B0
:1000F0001C49194A914202DA08600431FAE71A49A8
:100100001A4A1B4B9A4204DA086810600431043220
:10011000F8E700201749184A914202DA08600431D2
:10012000FAE700F04DF900F048F9144C144DAC42D8
:1001300003DA216888470434F9E701F089FC114C9F
:10014000114DAC4203DA216888470434F9E70F49BE
:100150000847000000060020000A002055555555AC
:1001600000020020000600207C200008000A002079
:10017000080A0020080A0020D8140020C000000847
:10018000C0000008C0000008C0000008BD0300084F
:1001900096E700F000F8FEE7F0B544464D465646B7
:1001A0005F46F0B46B46CB60C3689D46F0BCA0468A
:1001B000A946B246BB46F0BD62B6281CA047002047
:1001C00001F0C2FAFEE701F03FFA024A024B136067
:1001D000FEE7C04604ED00E00000008002B4714676
:1001E00049084900095C49008E4402BC7047C0467A
:1001F000002934D00123002210B488422CD30124DA
:100200002407A14204D2814202D209011B01F8E76E
:10021000E400A14204D2814202D249005B00F8E727
:10022000884201D3401A1A434C08A04202D3001B53
:100230005C0822438C08A04202D3001B9C08224386
:10024000CC08A04202D3001BDC082243002803D0C4
:100250001B0901D00909E3E7100010BC704701B584
:10026000002000F00BF802BD0029F8D003B5FFF71D
:10027000C1FF0EBC4243891A1847C0467047C046AA
:10028000F0B50500830749D0541E002A45D003006D
:100290000326CAB202E00135013C3ED301332A7085
:1002A0003342F8D1032C30D9FF220A401502AD1891
:1002B0002A04AD180F2C34D92700103F3F093E0106
:1002C000B4461E001A0010366644156055609560ED
:1002D000D56010329642F8D101373F01DB190F2764
:1002E0000C22274022403C00002A0ED03E1FB608B8
:1002F000B400A4461A001C1D644420C2A242FCD1D2
:1003000003240136B6009B193C40002C05D0C9B22D
:100310001C19197001339C42FBD1F0BD030014007D
:10032000C0E72700E2E7C046F0B505000F2A33D941
:100330000324030026000B431E401C4237D1150046
:10034000103D2D0903000C00AC462F013F186568D5
:100350005D60A5689D60E568DD60256810341D60FE
:100360001D001033BD42F2D165460F230C24013528
:100370002D0149191340451914421AD08C59AC511A
:1003800004369C1B032CF9D8043B9B0801339B00CB
:10039000ED18C91803231A40561E002A06D0002360
:1003A000CC5C1A00EC5401339642F9D1F0BD561ED4
:1003B000F5E71A00F0E7C04670477047FEE7000017
:1003C000F0B5082000240E494A680E6815008B68B5
:1003D000AB4210D8D51E0026AB4203D303339B1A81
:1003E0009B089E00CB689219934207D801381031C0
:1003F0000028E9D1F0BD80CE80C5E9E710C2F3E75F
:100400007C1E000810B500F0E5FA00F057FB00F084
:1004100039F801F02FF800F001F810BD10B500F028
:100420002DFB10BD10B50400002100F095FF002148
:10043000200000F079FF63681B68002B02D00621C2
:1004400020009847A368044A1340A3600023703437
:10045000A3600633237010BDFEFFFEFF0200030001
:1004600010B50400823212788A331A7000F05EFDF3
:1004700063681B68002B02D00121200098470323EA
:10048000237010BD10B500F045FD10BD012310B55F
:1004900040220400037000213030FFF7F1FE0023FA
:1004A0006360A36010BD10B5040072B624224160E1
:1004B00000210C30FFF7E4FE200000F0C7FD02230E
:1004C000237062B6002010BD10B504008368064A90
:1004D00000211340836020221030FFF7D1FE20005E
:1004E00000F026FE10BDC0460100010070B50125D8
:1004F0008D4044892C4344818C1CA40004196468F9
:10050000A46923600023A260636000F089FE70BDCF
:1005100070B501258D4004892C4304818C1CA400F6
:1005200004196468646923600023A260636000F0BA
:1005300099FE70BD022370B503700300002504000E
:1005400088331D6024222900856785600C30FFF701
:1005500097FE230070331D70200000F03BFD6368A0
:100560001B68AB4202D029002000984770BD037879
:1005700010B50400052B0CD002008C32137005233B
:10058000037043681B68002B01D0042198470023A7
:10059000A36010BD017810B5052908D103008C3384
:1005A0001B78037043681B68002B00D0984710BD70
:1005B000F7B50600703633780400002B06D0836848
:1005C000A34A13408360002383673370270080377A
:1005D0003A0000212000019700F002FE63689B684A
:1005E000002B0AD1019B1A78602315001D401A4286
:1005F00024D02000FFF716FFF7BD20009847002801
:10060000F0D0230086331A785B781B021343A26F65
:100610009A4200D9A367019BA16F1B787F2B00D85A
:1006200006E1002900D1F9E00923337072B60021F8
:10063000A36F626F2000FFF76BFFF7E023007F21BD
:1006400081331B780A401B021343824A934200D134
:10065000CCE026D880225200934256D00DD8012BF0
:100660004DD0022B00D191E0002BC2D12200883264
:1006700062670222A267E367C3E7812252009342C6
:1006800000D19BE0FF32FF329342B2D1230082338C
:100690001B78012BADD122008832118801330B4326
:1006A0003EE080221201934243D020D8A022D20003
:1006B00093423AD0684A9B18012B9AD8230084337E
:1006C0001A785B7821001B02134322006068823293
:1006D000406883310700127820000978B847002865
:1006E00000D186E7436863670368A3671BE0902235
:1006F0001201934222D0594A934200D079E7584BD5
:1007000063670223A3670023B5E7230082331B78C6
:10071000012B00D06DE722000221883213888B4321
:1007200013806567A567E5676BE74E4B6567A5674F
:10073000A1E723008B3363670123D6E72378042BDB
:100740000FD172B62000FFF7BFFE62B6230003216F
:100750008B331D70636821701B68002B01D0200053
:100760009847230082331B78002B0BD022008B325A
:1007700013700423237063681B68002B02D00221CE
:100780002000984700236367A36774E723000022D3
:10079000843319789A560F2320001940002A0ADA68
:1007A00000F002FD012804D0022800D021E72E4BE2
:1007B000A6E72E4BA4E700F0DBFCF3E7230082332F
:1007C0001B78002B00D014E7230084331B780F2202
:1007D000190011401342D5D05BB22000002B02DA81
:1007E00000F0E2FDCEE700F0C7FDCBE72300823347
:1007F0001B78002B00D0FCE6230084331B780F22EB
:10080000190011401342BDD05BB22000002B02DA68
:1008100000F0A2FDB6E700F087FDB3E714233370C4
:1008200072B60B000A002000FFF760FE62B6E3E636
:10083000002906D01523337072B60021A36F626FB2
:10084000F1E70B23337072B60B000A00F2E6C046E4
:10085000FEFFFEFF0203000000FAFFFF020C000093
:10086000001F00085D040008FE1E0008FC1E0008B2
:1008700070B505007035040028780B2807D8FFF7FD
:10088000ADFC082F2F2F2F2F082F2F0C25301528C8
:1008900026D12000FFF7C6FD22E0230086331A7818
:1008A0005B78A06F1B02134398420FD2E368198A4A
:1008B000FFF7DAFC002909D172B60B000A0020000C
:1008C000FFF726FE62B60A232B7009E014232B7073
:1008D00072B6002320001A001900FFF707FE62B667
:1008E00070BDE36F002B01D020009847A368034A36
:1008F0001340A3600023A367E6E7C046FEFFFEFFA8
:1009000070B5050070352B780400142B19D00CD865
:10091000062B06D002D8002B03D070BD0A3B012B5A
:10092000FBD82000FFF77EFDF7E7152BF5D10A3B3A
:100930002B7072B600231A001900FFF7E9FD62B6AA
:10094000EBE7C3689B695B68002BE6D1C36F002BA4
:1009500000D09847A368034A1340A3600023A3670D
:100960002B70DAE7FEFFFEFF0322F0B5FF26C0255D
:100970000240D2009640890191400A4F83089B00B3
:10098000DB19AD005C591F22B4430C435C510123B9
:1009900002409340C02240098000C0195200835099
:1009A0000360F0BD00E100E010B50F230324034015
:1009B0002040A040FC34844089018140083B044A27
:1009C0009B089B009B18DA69A2430A43DA6110BDB9
:1009D00000ED00E0064B074A02219A6200224942DC
:1009E0009A62D9600131DA6019611A617047C046B4
:1009F00000100240FFFF81FF01221C4B19680A43CF
:100A00001A60022219681142FCD003215A688A43F5
:100A10005A600931586802000A400842FAD1FD20A4
:100A20001968014019605A60DA621A635A63DA621F
:100A3000E42252035A608022196852040A431A6061
:100A40008022920419681142FCD01221084A1160D8
:100A5000022259680A430C215A605A680A40082A3F
:100A6000FBD1044B044A1A607047C0460010024094
:100A700000200240000A002000A24A04064B074A58
:100A800010B55A6000229A60073202210B201A60CA
:100A9000FFF78AFF10BDC04610E000E01F1C0000F9
:100AA00010B572B600F0FCFC62B610BD10B574460D
:100AB000FFF7F6FF200000F065FE10BD7047F0B5AF
:100AC000130003248C46012189B023400693930828
:100AD0001940D308234002935309234003930F2363
:100AE000D20913400793002301910699624601251C
:100AF0002A422FD0012707269F401E40079DB200A3
:100B0000049295408288019EBA43324326005F00DA
:100B1000BE403700F64392B2828082680596029EFC
:100B2000BA4332438260C268039EBA433243C26012
:100B30000F22049EB240069ED243022E1FD1072BE5
:100B400018D8066A16402E4306620268059D2A40A0
:100B50000A43026062465208944621D0019A8900F5
:100B600052000192029A013392000292039A92007B
:100B70000392BBE7466A16402E434662E5E70668E5
:100B8000059F3E400E430660072B04D8066A1640B8
:100B90002E430662DEE7466A32402A434262D9E7C4
:100BA00009B0F0BD012310B50848094C002123709D
:100BB000C3685B6898472378002B06D04023054A1A
:100BC000517C0B4353740023237010BD240A002072
:100BD000090A0020005C0040F7B5010043488B1C67
:100BE0009B00C3185F680122BC69414B002911D1E9
:100BF0005D7C15420DD001252A008A409446664648
:100C0000428916420CD1002906D14022597C0A4360
:100C10005A74F7BD1D7DECE71A7DAA431A75F8E7F3
:100C20009A7DDD7D2D021543A268002943D1002A5B
:100C300002D12668002E0BD0002D41D1002A09D107
:100C40002268002A06D148225E7C32435A740EE0A4
:100C50000D00F8E77E8AA289AE4201D8012A27D189
:100C600048225E7C32435A740122224B1A70A368D8
:100C7000002B01D05B19A36063685B196360236874
:100C80005B1B2360A389013B9BB2A3817A8AAA42A2
:100C900001D8002BBDD162464389934343818B1C0D
:100CA0009B00C3185B68DB68002BB2D09847B0E7A5
:100CB00040225E7CC9E7002D13D0002A11D001E04C
:100CC000002ABDD0561900960B4E8E190196019E32
:100CD000F67F1670009E01329642F8D1A268002974
:100CE000ACD001261A7DB2431A75C0E7240A002051
:100CF000005C0040080A0020015C0040F7B50100DC
:100D00002A488B1C9B00C3185B689C465A690029C3
:100D100007D00425264B5C7C2C4202D05C7CAC4383
:100D20005C7401268E4005892E422CD05468D3680D
:100D300017681C1900973F1B0197009F5460A7423A
:100D40002CD06446258A019CAC4200D92C009668C0
:100D5000D460F318174E93608E191A19934213D169
:100D6000134B002917D1019AAA4211D8C268128ADE
:100D7000944204D3863002880099914208D30A2213
:100D8000597C0A435A74F7BD1F780133F777E5E7BA
:100D90000222597CF5E70122597CF2E763469B6801
:100DA000B5430581002BEED09847ECE7240A0020DC
:100DB000005C0040015C00407346F0B5524C85B0C9
:100DC0000093A3790122DEB25B071AD50023A17B31
:100DD000E271C9B223726372A372A2730132D2B2FA
:100DE0002374E374A374637563742375082AF4D1C0
:100DF0004648A173FFF79EFB009800F0C3FC05B0C6
:100E0000F0BD424D164202D02800FFF7B0FBB307F9
:100E100002D52800FFF7BEFB360705D56B68DB68F7
:100E2000002B01D028009847A378E2791A4001925C
:100E30002379627A1A400292A37BDBB20393019B6F
:100E4000DB0725D50023A57BA373627C102011004E
:100E5000EDB2D3B20140024203D0627C7030024353
:100E600062740420034202D0627C824362740122D5
:100E700018001040134244D0002906D1244B234AC5
:100E80001B78002B01D0062B29D1FFF78BFEA57311
:100E90001E4E01253700019B01222B41134206D033
:100EA0003B69002B03D0E8B2A073FFF727FF0135A1
:100EB0000437082DEFD1073D2F00029B2B413B4209
:100EC00006D03369002B03D0E8B2A073FFF784FE8D
:100ED00001350436082DF0D1039BA3738CE7D3684A
:100EE000A17D9A69E37D1B020B43082B05D1936812
:100EF000002B02D11368002BC7D00020FFF76CFE37
:100F0000C5E7FFF7FBFEC2E7005C0040240A0020B3
:100F1000940A0020002210B5024B03481A70FFF714
:100F2000B5FA10BD090A0020240A00207F228A3069
:100F300003781340014A13707047C046005C0040BC
:100F400070B58B1C9B00C018214B40689C7B99732B
:100F5000E4B2002905D10122D9790A43DA719C73E0
:100F600070BD42698569002A17D0028A0732D2080B
:100F7000D2B21A7420229E7C324303269A740268ED
:100F80003240012A03D19E7C3F3232439A740126BB
:100F90008E40DA793243D2B2DA71002DDFD02025CB
:100FA000428A0732D208D2B2DA749A7CAA439A747F
:100FB000026803200240012A03D1587D3F320243D8
:100FC0005A75012088405A7A0243D2B25A72C6E753
:100FD000005C0040002270B50124184B18491A70BB
:100FE0000A7018490A70597821435970DC711A72D5
:100FF0005A729A7241680732002904D0C9680832CF
:10100000002900D1083A0021DA729A7B9973597C41
:10101000D2B2CCB2C90703D540215D7C29435974B3
:10102000E40603D58024597C214359749A73064BF6
:101030000021C360FFF784FF70BDC046005C004024
:10104000090A0020080A0020041F0008037870B570
:101050000400012B59D12D4B984253D180222C4BA7
:101060005202596B0A435A6380229202596B114211
:10107000FCD08020196B274D814319638021D869EA
:1010800049050143D961D969286823490840C0212D
:10109000890201432960596920480A435A615A6903
:1010A0009022A021D205156849040540294311600A
:1010B00091881B4D29409180F0219568890429432E
:1010C0009160D1680140D160EE21906BC90201436B
:1010D00091638022D96912041143D961D9691969D0
:1010E0001F200A431A611A690E490A401A61032136
:1010F0001B69FFF739FC00220B4B0C491A700A7070
:1011000001325A702000FFF765FF70BD240A0020ED
:101110000010024000700040FFFFF2FFFFFF3FFCA5
:10112000FFE7FFFFFFFF7FFF005C0040385C0040EF
:101130000121002270B50D000C4B987B9A73C0B250
:101140002E008E40CCB29C73DC790131B443DC714B
:101150005C7AB4435C721A74DA749A745A755A746D
:101160001A750829ECD1987370BDC046005C004028
:101170008B1C9B00C018436810B5181E0FD09B69CC
:10118000181E0CD0074B20249A7B9973D2B20029E9
:1011900006D1587C2040414248419A73013010BD2D
:1011A000187DF7E7005C00408B1C9B00C01843686B
:1011B000181E0FD05B69181E0CD0084B9A7B9973D0
:1011C000587CD2B2002906D1203108404142484122
:1011D0009A73013070471021F7E7C046005C004069
:1011E000110030B50B4B0C4C0831E07F1070013210
:1011F0008A42FAD109480278002A09D00024402105
:101200009A7B9C735D7CD2B2294359749A730470A3
:1012100030BDC046005C0040015C0040090A00206F
:101220008B1C9B00C018426870B595690C0028683B
:101230000123002805D0518A40180138FEF7D8FF55
:1012400083B2AB81002C0AD00120A040044B997BD3
:101250009C735A7AC9B20243D2B25A72997370BD62
:10126000005C0040F0B58B1C9B00C3185B6885B028
:101270005C69019327681B8ABB4200D93B00E3608D
:10128000002B0ED0A2689D180295244D4D19039590
:1012900015780132AC466646039DEE77029D954275
:1012A000F6D11F4A967B9173F5B2AC46002931D135
:1012B0001C4E3578002D0DD063463170937301229A
:1012C000038993430381019B9B68002B00D09847BF
:1012D00005B0F0BD002B0BD10100703109780B294E
:1012E00006D10A23517C0B43537463469373EFE793
:1012F0006168791A8B420AD1C168098A8B42F0D39E
:101300008630437801781B020B439F42E9D20223C7
:10131000517CE8E70123517CE5E7C046015C0040D1
:10132000005C0040080A00200A4B9A7B9973D2B2F5
:1013300000290AD1597C587CC90704D56021014392
:1013400059749A7370472021F9E72021187D0143D1
:101350001975F6E7005C0040064B9A7B9973587C40
:10136000D2B2002904D12031014359749A737047D5
:101370001021F9E7005C00400A4B9A7B9973D2B2C6
:10138000002905D12420597C814359749A737047F0
:101390006020197D81431975197D2030014319752D
:1013A000F4E7C046005C0040094B9A7B9973D2B2C7
:1013B000002905D12420597C814359749A737047C0
:1013C0003020597C814359744021587C0143F4E713
:1013D000005C00404B689BB283808B688360CB6865
:1013E000C3600B699BB283824B6903628B69436262
:1013F0000B68036070470000FC22134BD203996A0C
:1014000010B511439962996A104801409020996281
:10141000996A5969C0050A435A610D495B69FFF72A
:10142000D9FF0C490C48FFF7D5FF0C490C48FFF7D2
:10143000D1FF0C490C48FFF7CDFF0C490C48FFF7D2
:10144000C9FFFFF7D9FA10BD00100240FFFF81FF6E
:10145000281F0008441F000800040048601F0008FF
:10146000000800487C1F0008000C0048981F000876
:101470000014004870470000012310B5054C0649D0
:10148000237000230548636000F0F4F80223237002
:1014900062B610BDB40B0020C41F0008680B00200A
:1014A00010B500F033F810BD10B50A4C23699A68E6
:1014B00091420CD85A6881600360426010609A685B
:1014C0005860521A9A6001235B42A36110BD1B68E9
:1014D000891AECE7680B002010B503610023C26095
:1014E0004361FFF7E1FF10BD036881689A685218F5
:1014F0009A60426813605A60002301220360024B25
:1015000052429A617047C046680B002070B5114D79
:10151000114AEB690133EB612B69934206D09A685B
:10152000013A9A602C69A368002B00D070BD226834
:1015300061680A605160236062B62000E368216937
:10154000984772B661690029ECD02000FFF7ACFF24
:10155000E8E7C046680B0020780B00200023826873
:10156000037503691B6899689142FBD25A6803604E
:1015700042601060586070470023826803750369F9
:101580001B6899689142FBD85A68036042601060FA
:1015900058607047080010B572B60B7D032B05D05C
:1015A000042B0CD0002B04D162B610BD00228B6935
:1015B0001A6001235B428361FFF7D0FFF4E74A68BA
:1015C0000B6813605A60F4E710B5FFF7C7FF10BD52
:1015D000064B10B5D96808751868026853601A6020
:1015E00001220275D860FEF7D7FD10BD680B002000
:1015F00030B50D4B0400DD6887B04B1C10D02B00BC
:1016000068460A4AFFF768FF2000FFF7E1FF009BEA
:10161000002B02D06846FFF767FFA86907B030BD0E
:10162000FFF7D6FFF9E7C046680B002095150008C4
:10163000044BDA68196890688B6898428041404290
:101640007047C046680B0020084B10B51C68D8686E
:10165000226853601A6001222275DC60FFF78CFF5C
:1016600001002000FEF798FD10BDC046680B002069
:10167000FEE7000070B500250400174B86B0056238
:1016800081620E00586000F073F82300103323616C
:101690006361012321005B42A361E5612C312000DD
:1016A0000E4A24606460A5606562A564813300F021
:1016B0001BF801230A4AE0600375009272680393E5
:1016C0000192084BB268684602920493059500F0B7
:1016D0002BF806B070BDC046B40B0020B71F000841
:1016E000BC1F0008711600088B60022308618B8202
:1016F0000800704783680200180011692038443BD5
:10170000C36019615169596105491962D3688360E1
:101710000223037500234375024B03617047C046E3
:10172000B9010008680B002010B5FFF7E3FFFFF7D1
:101730004BFF10BD10B5034BDB6898610F20FFF71E
:1017400047FF10BD680B002010B572B6FFF7F2FF1F
:1017500010BD10B5010072B60820FFF749FF62B650
:1017600010BDEFF30983203383F3098862B6704715
:10177000024A0349136A0B401362704700ED00E010
:10178000FFFF00FF10B50F300FD072B6EFF30984E2
:10179000203C84F3098880235B04E361FFF748FF62
:1017A000024B002800D1024BA36110BDC701000805
:1017B000CA010008012305480549CA681A4201D137
:1017C000012002E001380028F7D1704780841E0014
:1017D000002002400122F0B5344B87B002931B7801
:1017E0000192002B0BD0324F3D68FFF7E3FF00283A
:1017F00008D1002301930023029A3B6013700198E3
:1018000007B0F0BD02232B4C2B4EE6602269134338
:10181000236140236561226913432361FFF7CAFFF7
:10182000264B0593059B5A1E0592002B2DD10222B3
:101830002369934323610028DBD01425E368123227
:10184000E6601D401342D4D13B680393FFF7B2FF1B
:1018500001900028CDD00123E66022691343236163
:10186000174BE9185A5D4B781B021343124A9342F7
:1018700012D0039A52191380FFF79CFF002806D15B
:101880000122236993432361B3E7C046CAE71422C8
:10189000E368E6601342F3D1802302351B019D42C9
:1018A000DED10122236993432361A4E7BC0B00200E
:1018B000C00B002000200240FFFF0000801A06003D
:1018C000C40B0020024B034A5A60034A5A60704717
:1018D0000020024023016745AB89EFCD8023024AF7
:1018E00011690B4313617047002002400022034B33
:1018F00001201A70024B1A607047C046BC0B0020D2
:10190000C00B0020F0B5284B85B0160004000191F3
:10191000984202D8002005B0F0BD8318234A9342B4
:10192000F8D8002E01D10120F5E7E70AFF02E31BFA
:10193000029380233D1B1B01ED18B54200D93500F1
:101940001B4B03931B78002B21D18022FF21120116
:101950001848FEF795FC0122174B1F60144B1A70B4
:10196000029B14482A0018180199FEF7DDFC019B20
:1019700064195B190193029B761B5D1980231B017F
:101980009D42CED1FFF726FF0028CAD1C2E70A4BFD
:101990001B68BB42E4D0FFF71DFF0028BAD0039BB1
:1019A0001B78002BDCD1D0E7FF3F000800000208C5
:1019B000BC0B0020C40B0020C00B0020E020400224
:1019C000704710B5FFF706FF10BD000070B59024FA
:1019D000E405012220212000FFF771F880239B03FA
:1019E000A36113491348FEF75EFD0123124D2A78C7
:1019F00013432B70114B1B78002B11D01048FFF7AD
:101A0000A8FE0023FA202B70C000FFF7A2FEBFF350
:101A10004F8F0C4B0C4ADA60BFF34F8FC046FDE787
:101A20002023A28A09485340A382FFF792FEE1E7F0
:101A3000D01F0008240A0020385C0040CB1300208F
:101A40004C1D000000ED00E00400FA05C409000090
:101A5000F7B55C4E5C4A33685C4F934237D13B68C4
:101A60005B4A934233D1802400238022A405336053
:101A7000200058493B609200FEF756FCBFF34F8FA1
:101A800006CC554BC81898239B01984219D8E020E2
:101A9000524B4002D318834213D201231A4210D072
:101AA0004F48846923438361BFF34F8F03234D481D
:101AB000046823430360BFF34F8F72B681F3088835
:101AC0001047FEF79FFCFFF7D7FCFFF77FFFFEF7FD
:101AD00099FCFFF7D1FC0021434B444D1A68196073
:101AE0002B680093424B9A4202D10B002B60ECE72B
:101AF0008021404C01222000C900FEF7E0FF802138
:101B0000012220000901FEF7DAFF802101222000D6
:101B10004901FEF7D4FF8021012220008901FEF750
:101B2000CEFF8023DB00A36180231B01A361802300
:101B30005B05A36180239B0120220421A361200077
:101B4000FEF7BDFF1420FFF704FE238A20229BB27C
:101B5000042120000193FEF7B2FF80212022200003
:101B6000C900FEF7ACFF8021202220000901FEF70A
:101B7000A6FF8021202220004901FEF7A0FF80213E
:101B8000202220008901FEF79AFF019B5B0706D403
:101B90000323009A1A40012A12D100232B6000234C
:101BA0002B60094B33600A4B3B60BFF34F8FBFF391
:101BB0004F8F114B114ADA60BFF34F8FC046FDE7DC
:101BC000012393E7E4010020512F1E4BE801002080
:101BD000535432330040000800FEFFDF00C0FFF71F
:101BE0000010024000000140F0010020F40100203C
:101BF000A1D7324B0004004800ED00E00400FA05D4
:101C00000748022905D00020032903D0012900D16B
:101C100004487047022AFCD80348D2001018F8E79D
:101C20001820000860200008E01F00080122014B76
:101C30001A707047CB130020F7B50500602380357C
:101C40002A7804001340202B00D0E0E068780021BF
:101C5000062835D8FEF7C2FAA3A86A0496639F0047
:101C60007B4D7C492A780091D3B2062A3DD0072BC0
:101C700053D0032B14D1784E784A33689B180193C4
:101C8000FFF720FE3368002B1CD1FFF72FFE002842
:101C900018D1FFF723FE0A23009A2B70073B13701D
:101CA000009B1A786E4B29781A70002219715A70AD
:101CB0009A70DA705A7163670623E267A36701219D
:101CC0000800FEBD674F68493A680198FFF71AFEA1
:101CD0000190FFF703FE019B002BDCD033683A68CC
:101CE0009B18336005232B70DAE7FFF7EBFDFFF756
:101CF00068FE0600FFF7F2FD002E08D007232B70C8
:101D00002B78072BCCD10122584B1A70C8E70A2335
:101D1000009A2B70073B1370F2E70823E3E74C4B64
:101D200063670123A3670023E367C8E7484F3B7855
:101D3000DAB2022B03D0092A04D0002328E00022C3
:101D4000454B1A60EE79AB7936021E43FFF736FE3B
:101D5000AB7941499C46EB7965460A681B022B43E7
:101D60009B1883420CD90223801A86B23B703B4BEE
:101D7000A667D318636700239219E3670A609EE79A
:101D80000923F3E700230221324A1370304A11700D
:101D90006367A367C8E702222D4B1A70CDE70023C3
:101DA0006367A367324BBFE729490B78DAB2022B8E
:101DB00015D0052AC1D1EB79AA791B02134323D090
:101DC000284A2C481360022205682A430260A36750
:101DD0000023254AE367033362670B706FE7EB79F3
:101DE000A8791B020343D3D000251B4805601D487A
:101DF0000360204806683243026003220A701A4AD0
:101E0000A3676267E5675AE706220A70C0E7002108
:101E10008B4200D054E71F200240012A00D04FE738
:101E200068780A280FD00B2800D049E7A978124A11
:101E300011700221074A1370054A1170064A136097
:101E4000084A1360A4E70C49A26761676CE7C046C3
:101E5000040A0020D4130020D01300200040000802
:101E6000C4130020CC130020D5130020CB13002076
:0C1E70002D1C0008F4010020CA13002003
:101E7C0084200008D8140020D8140020D814002086
:101E8C00842000080000000000000000000000009A
:101E9C00842000080000000000000000000000008A
:101EAC00842000080000000000000000000000007A
:101EBC00842000080000000000000000000000006A
:101ECC00842000080000000000000000000000005A
:101EDC00842000080000000000000000000000004A
:101EEC00842000080000000000000000000000003A
:101EFC00010000000000000000000000B105000817
:101F0C00710800080109000840004000140A002074
:101F1C00140A0020010000000A0A0020A004002876
:101F2C00000000005FF7FFFF05515565DFFF000063
:101F3C000011000000000000800000000000000004
:101F4C00FFFFFFFF55555555FFFF00000000000037
:101F5C00000000000000000000000000FFFFFFFF79
:101F6C0055555501FFFF0000000000000000000067
:101F7C000000000000000000FFFFFFFF5555555505
:101F8C00FFFF000000000000000000000000000047
:101F9C0000000000FFFFFFFF50555555FFFF0000EC
:101FAC0000000000000000006330006D61696E00ED
:101FBC0069646C6500000000B41F0008B80A0020BA
:101FCC00680B002000000000011C0008391C0008F0
:101FDC0000000000040000001420000808000000AD
:101FEC000C20000814000000F81F000814037300F4
:101FFC006B00330032006400750069006E006F00E6
:10200C00080351004D004B00040309043F0000007D
:10201C002020000809023F0001010080640904002F
:10202C000000FE01020009210BE803000110010968
:10203C0004000100FE01020009210BE8030001105D
:10204C00010904000200FE01020009210BE8030053
:10205C0001100100120000006820000812010002AB
:10206C0000000040AF1E030000020102000100004E
:08207C0000A24A04020000006A
:04000005080001915D
:00000001FF
