:020000040800F2
:100000000004002091010008C112000893010008BB
:100010009301000893010008930100089301000870
:100020009301000893010008930100089301000860
:1000300093010008930100089301000811050008CE
:100040009301000893010008930100089301000840
:100050009301000893010008930100089301000830
:1000600093010008810600081108000861080008D3
:100070009301000893010008930100089301000810
:100080009301000893010008930100089301000800
:1000900093010008930100089301000893010008F0
:1000A00093010008930100089301000893010008E0
:1000B00093010008930100089301000893010008D0
:1000C00072B6244880F30888234880F30988022008
:1000D00080F31488BFF36F8F00F022F900F030FD39
:1000E0001E481F491B4A914202DA08600431FAE7B0
:1000F0001C49194A914202DA08600431FAE71A49A8
:100100001A4A1B4B9A4204DA086810600431043220
:10011000F8E700201749184A914202DA08600431D2
:10012000FAE700F015F900F003F9144C144DAC4255
:1001300003DA216888470434F9E701F019F9114C12
:10014000114DAC4203DA216888470434F9E70F49BE
:1001500008470000000400200008002055555555B0
:1001600000000020000400200C16000800080020F9
:100170000408002008080020880B0020C0000008A8
:10018000C0000008C0000008C000000841030008CB
:1001900096E700F000F8FEE7F0B544464D465646B7
:1001A0005F46F0B46B46CB60C3689D46F0BCA0468A
:1001B000A946B246BB46F0BD62B6281CA047002047
:1001C00000F0B6FFFEE700F0ABFE024A024B136000
:1001D000FEE7C04604ED00E000000080002934D0B6
:1001E0000123002210B488422CD301242407A14209
:1001F00004D2814202D209011B01F8E7E400A142C6
:1002000004D2814202D249005B00F8E7884201D360
:10021000401A1A434C08A04202D3001B5C08224338
:100220008C08A04202D3001B9C082243CC08A042A9
:1002300002D3001BDC082243002803D01B0901D095
:100240000909E3E7100010BC704701B5002000F079
:100250000BF802BD0029F8D003B5FFF7C1FF0EBCB3
:100260004243891A1847C0467047C046F0B505009A
:10027000830749D0541E002A45D003000326CAB282
:1002800002E00135013C3ED301332A703342F8D1FC
:10029000032C30D9FF220A401502AD182A04AD18EC
:1002A0000F2C34D92700103F3F093E01B4461E00F1
:1002B0001A0010366644156055609560D56010329E
:1002C0009642F8D101373F01DB190F270C22274056
:1002D00022403C00002A0ED03E1FB608B400A446BF
:1002E0001A001C1D644420C2A242FCD10324013622
:1002F000B6009B193C40002C05D0C9B21C191970DE
:1003000001339C42FBD1F0BD03001400C0E727007D
:10031000E2E7C0460000000000000000000000000E
:100320007047C04600000000000000000000000010
:100330007047C04600000000000000000000000000
:10034000FEE7C046000000000000000000000000C2
:1003500070B5114C250080356068A2682168904214
:100360000AD2030040C940C39342FBD3013A131A97
:100370009B0801339B00C018E368834207D9013B07
:100380001A1A9208013200219200FFF76FFF103411
:10039000AC42E1D170BDC0467014000800000000FE
:1003A00010B500F055F800F0DBF800F031FC00F07B
:1003B00007F810BD00000000000000000000000071
:1003C00010B500F0B5F810BD0000000000000000FE
:1003D0000F4A70B594460322FF25C0260240D20082
:1003E00095408901914083089B006344B6009C5965
:1003F0001F22AC430C439C51012302409340C02276
:1004000040098000604452008350036070BDC046C4
:1004100000E100E00000000000000000000000001B
:100420000F2310B50340040003202040FF24074A97
:10043000C0009446844089018140083B9B089B0092
:100440006344DA69A2430A43DA6110BD00ED00E0BB
:10045000074B084A022110B59A62002249429A626B
:10046000D9600131DA6019611A6100F029F910BD13
:1004700000100240FFFF81FF0000000000000000AC
:1004800001211D4A13680B4313600131136819429F
:10049000FCD0032153688B435360174A093108008D
:1004A000536818401942FAD1FD2311680B401360BC
:1004B000E4235B035060D06210635063D0625360EA
:1004C000802311685B040B43802113600A4A89046E
:1004D00013680B42FCD01221084B19605368103985
:1004E0000B4353600C2204494B681340082BFBD18B
:1004F000034B044A1A60704700100240002002407B
:100500000008002000A24A040000000000000000D3
:1005100010B5744672B600F0B3FB62B6200000F06E
:10052000E7FE10BD00000000000000000000000019
:10053000064B074A10B55A6000229A600732022122
:100540000B201A60FFF76CFF10BDC04610E000E002
:100550001F1C000000000000000000000000000060
:100560007047C046000000000000000000000000CE
:10057000F0B54E46032457464546DE46E0B5270013
:10058000530917405607D508520525401C40130F44
:10059000012285B0039391460023A4460297F60FEB
:1005A000009717E05C4607682740009C27430760D8
:1005B000072B52D85446076A3A4022430262490840
:1005C00044D0624692009446009A76009200AD00B4
:1005D000009201334A460A42F1D007274C46039A5B
:1005E0001F40BF00BA409C4092468288A2433243DB
:1005F00092B28280846801945C00A0460324424643
:100600009440E24393462200A046019C944322007A
:1006100044462A438260C268A24364462243C260C1
:100620000F22BA40029CD243022CBBD1072B1AD80E
:10063000076A17405246174307625C46026849083A
:100640002240009C224302600029BAD105B0F0BCD0
:10065000BB46B246A946A046F0BD5446476A3A405A
:1006600022434262ABE7476A17405246174347624C
:10067000E3E7C046000000000000000000000000AA
:100680000E210A4B10B51A6874461140084A1268C8
:100690000A4206D0074A59609368002B01D0D068FF
:1006A0009847200000F024FE10BDC0460000024024
:1006B00008000240080800200000000000000000C0
:1006C0000020002100230D4A106051600C490B608E
:1006D0000C4993600B600C4913610B600B499361EB
:1006E0000B600B4913620B600A4993620B60136342
:1006F0000122094B52425A607047C0460808002048
:10070000080002401C000240300002404400024049
:10071000580002406C00024000000240000000004F
:100720009C460123F0B54646D6464F461D00C0B54F
:10073000854000261E4C994623688A46B0461D42D5
:1007400029D11C4F0601B919884661460130C00005
:1007500022502B43201841602360AB0605D0494648
:10076000154B5869084358615B69002A06D0BA19CD
:1007700063689068184214D01D4365600F20B91952
:100780004B68497B1A6882431A600E228A40B85926
:10079000426000221A604046E0BCBA46B146A84614
:1007A000F0BD5146D07BFFF713FE6368E4E7C04617
:1007B00008080020F01400080010024000000000AB
:1007C00010B572B6FFF7ACFF62B610BD00000000B6
:1007D00070B50468457B23680E21EB4019404368DF
:1007E000827B1B6819420BD00B00AB400132636067
:1007F000044BD200D458002C02D09B185868A04754
:1008000070BDC04608080020000000000000000085
:100810000E210C4A10B5136874461B0919400A4B87
:100820001B680B4207D00B015360084A1369002B69
:1008300001D0506998470648FFF7CAFF200000F032
:1008400057FD10BD000002401C00024008080020B7
:10085000101500080000000000000000000000006B
:1008600070B5084C75462000FFF7B2FF200010302D
:10087000FFF7AEFF20002030FFF7AAFF280000F0AE
:1008800037FD70BD201500080000000000000000CA
:10089000002000210022034B18605960024B1A709F
:1008A0007047C046480800204008002000000000B3
:1008B00070B52D4C2178002955D12C4B2C4A9D69BF
:1008C0002A439A619A698022DD68D2042A43DA6059
:1008D000DA68284D2A40DA60DB680123264A9361F2
:1008E0009161837841781B0409020B4301780B4323
:1008F000D3600379C1781B020B43936015681F4BCB
:100900001D404379591E8B4181795B02481E81410C
:1009100009020B4380212B4349020B433F251360FF
:100920000221002300220020FFF74AFF1449154A44
:100930000B6B1060AB43103D2B430B63002804D0BE
:10094000436811499960114919605368002B04D01C
:100950005B680F4A9A600D4A1A60012206490B68CB
:1009600013430B60227070BD40080020001002404D
:1009700001000004FFFFFFFB00680140F6F8FCFCEB
:10098000000001404808002010680140902000004D
:10099000146801400000000000000000000000009A
:1009A000F0B54E464546DE465746E0B55D4B83B052
:1009B0001B78894690460190002B00D1A2E05A4B4B
:1009C0008200D658002E00D19CE0002900D199E089
:1009D0004346002B00D182E080235B02984500D380
:1009E00090E0019B002B00D181E080254F4B6D05ED
:1009F0001B682B4210D064244C4F03E0013C002CB8
:100A000000D18BE00A2000F0BBFB3B681D42F5D112
:100A1000019B002B00D171E080235B049B465A466A
:100A2000424B64249A465B681A4204D10BE0013CB5
:100A3000002C00D172E00A2000F0A2FB53465A4677
:100A40005B681A42F3D10F21736830681A68012479
:100A50008A431A600E22717B8A4041464260596087
:100A60004946D96032491960196821432F4C1960F1
:100A700021682943216059686424002903D10DE0CD
:100A8000013C002C41D00A2000F07AFB73685A68C0
:100A9000002AF5D1717B0E328A4030680F24196824
:100AA000224EA14319604260336855341D4203D180
:100AB00008E0013C002C31D00A2000F061FB3368D3
:100AC0002B42F6D1019F7B1E9F41FF237F425B0596
:100AD0001F4080239B039C46144B67445F600020AB
:100AE00003B0F0BCBB46B246A946A046F0BD802587
:100AF0000E4B6D031B682B4200D07CE780235B020A
:100B00009B468CE702204042EAE70F211A688A439D
:100B10001A600E23717B32688B4053600120404283
:100B2000DEE7C04640080020480800200068014079
:100B30009020000000000000000000000000000005
:100B4000FC22244BD203996A10B511439962996A29
:100B50002148802401409962996A59691F480A43D3
:100B60005A6190225B6900231D49D20593809160F0
:100B70001C49D16021214942918288214901116299
:100B80001949536211600122184952428B808A60D0
:100B9000C8608A820B624B620C601549154C8B80D1
:100BA0008A60CC608A820B624B620B6012498B8038
:100BB0008A60C8608A8211480B624B620B601049E0
:100BC0008B808A60C8608A820B624B620B60FFF781
:100BD00057FC10BD00100240FFFF81FF55555555D1
:100BE0005FF7FFFF05515565A00400280004004889
:100BF0000008004855555501000C00485055555502
:100C00000014004800000000000000000000000088
:100C10007047C04600000000000000000000000017
:100C2000012310B5084C23700023636000F0B8FA6C
:100C300000F0F6FA00F014FB0449054800F098F9BA
:100C40000223237062B610BDC0090020841500087D
:100C5000300900200000000000000000000000003B
:100C600072B68822024B9850024B853A1A70FEE702
:100C700030090020C0090020000000000000000032
:100C800010B500F03DF810BD0000000000000000AD
:100C900010B5036100230C4C43612369C2609A685C
:100CA000914204D91B68891A9A688A42FAD35A6811
:100CB00081600360426010609A685860521A9A60BE
:100CC00001235B42A36110BD300900200000000039
:100CD000036881689A6852189A60426813605A6083
:100CE000002301220360024B52429A617047C046C2
:100CF000300900200000000000000000000000009B
:100D000070B51B4DEB692C690133EB612B0010337F
:100D10009C4215D0A368013BA3600FE02268616884
:100D20000A605160236062B620002169E368984739
:100D300072B66369002B04D12C69A368002BEDD037
:100D400070BD2A6991688B4204D912685B1A916858
:100D50009942FAD35168A360616022600C60916887
:100D60005460CB1A936001235B42AB61E4E7C04659
:100D7000300900200000000000000000000000001A
:100D800072B62423CB5C0C2B0BD8114A9B00D35892
:100D90009F468A6A9368013393604A680B681360C0
:100DA0005A60012300225B428B622533CA548B694F
:100DB00088681B689A688242FBD25A680B604A6056
:100DC0001160596062B6704700228B6A1A60E8E7CA
:100DD000981500080000000000000000000000005E
:100DE00024230022C254836981681B689A688A425E
:100DF000FBD25A6803604260106058607047C0467A
:100E00002422074B10B5D9688854186804686360B9
:100E10001C6001248454D860FFF7BEF910BDC046A1
:100E20003009002000000000000000000000000069
:100E300070B5164C0500E66886B04B1C19D033001F
:100E40006846134AFFF724FF2423E1682068CD5445
:100E50000268546022600122C254E060FFF79CF9EE
:100E6000009B002B02D06846FFF732FFB06A06B045
:100E700070BD2423F0542068310002685460226061
:100E80000122C254E060FFF787F9EFE73009002044
:100E9000810D0008000000000000000000000000BC
:100EA00070B5154C8162E368826899688A4214D9EA
:100EB000242200259D549A6912689568A942FBD3A3
:100EC00051681A6059600B605360012124228154DB
:100ED0001900E060FFF760F970BD24230021C154C0
:100EE00083691B6899688A42FBD95A68036042602B
:100EF00010605860F0E7C046300900200000000094
:100F0000044BDA68196890688B68984280414042C7
:100F10007047C046300900200000000000000000BB
:100F20000D4B10B51868D9680268012453601A6027
:100F3000D8602422002384548B548B698C681B68EE
:100F40009A68A242FBD85A680B604A6011605960E7
:100F5000FFF722F910BDC046300900200000000054
:100F6000FEE7C04600000000000000000000000096
:100F7000F0B5002604001D4B87B0066381630D00A9
:100F8000586000F0A5F923002833A362E362183B00
:100F90002361636101235B42A361154BE661DB6959
:100FA0000027A660666321001E0088232662676210
:100FB000246064603C31E75020000E4A083B00F09A
:100FC0001FF86B68E06024220362012383540A4AFD
:100FD00003930092EA68094B01922A6968460292DB
:100FE0000493059700F064F807B0F0BDC009002035
:100FF00030090020CC15000854150008610F0008C6
:1010000010B5040008008B60436402210023818432
:101010000364C363013926338461C154C261220071
:10102000030028320261E26A103342611360E36216
:101030001C33C36204330363436310BD000000002C
:101040008368020018005168503830B501621900F9
:1010500014697439C1600C61546902254C61114CEA
:101060000C621468D1681A002C3A816015804164C2
:1010700000210D4A0164C163013D2631826145545E
:10108000C46119001400403928340C60D46A4C60E3
:101090002160D1621A00203B243A12601B605B6021
:1010A00030BDC046B9010008300900200000000032
:1010B00010B5FFF7C5FFFFF793FE10BD000000005D
:1010C00010B572B650394418210024392062E1600D
:1010D0000B61029B20004B61124B0B620223A2604A
:1010E000626400220121A3840F4B2264E263263252
:1010F000A361A1540D4A1900E26122002831216147
:10110000D96A103261610A60DA6223002C33E3622B
:101110000433002123636363FFF7C2FE62B620003D
:1011200010BDC046B9010008300900205C15000858
:1011300070B572B6114BDC682500A062E06A2C35F0
:10114000854207D12623E35C002B0ED00F20FFF74A
:1011500057FE70BD0368E362FFF742FEE06AA842F3
:10116000F8D12623E35C002BF0D12533E35C9B0709
:10117000ECD16269236913605A60E7E73009002007
:1011800010B5010072B60820FFF752FE62B610BD1E
:1011900000230060406083607047C046000000008C
:1011A000024B034A1A60034A5A607047C80900207C
:1011B000880B00200020002000000000000000003C
:1011C00070B5094C26686568AB1B984209D82B1A84
:1011D00048421840821A964203D8954201D3626071
:1011E00070BD0020FCE7C046C809002000000000D8
:1011F00070B572B6094C26686568AB1B98420AD870
:101200002B1A48421840821A964204D8954202D3BB
:10121000626062B670BD0020FBE7C046C8090020CE
:101220000548064B10B503600023436083600C3013
:10123000FFF7AEFF10BDC046D0090020F111000835
:1012400010B50024046041608260C36010BDC046D8
:1012500010B50022FFF7B4FF10BDC046000000002B
:1012600070B5134C2000FFF793FF23002000114DB1
:101270001033236104222B0014211430FFF7E0FF08
:10128000230024336362230020002833A362042256
:101290002B001C212C30FFF7D3FF23003C33E363EA
:1012A00023004033236423004433636470BDC0468D
:1012B000EC090020511200080000000000000000AE
:1012C000EFF30983203383F3098862B67047C04681
:1012D000024A0349136A0B401362704700ED00E0B5
:1012E000FFFF00FF00000000000000000000000001
:1012F00010B50F3000D110BD72B6EFF30984203C59
:1013000084F3098880235B04E361FFF7F9FD00287B
:1013100002D0034BA361EEE7024BA361EBE7C046AB
:10132000C7010008CA01000800000000000000001A
:1013300070B58025084B094ADB68094CDA61ED017C
:101340000848A561FFF71CFF8023DB050548A36162
:10135000FFF716FFF4E7C0463009002064150008C7
:101360000004004888130000000000000000000096
:10137000F0B5D6464F464646C0B584B0FFF710F8E4
:10138000FFF74EFC8021314B01221800C90198461D
:10139000FFF7EEF88021012240460902FFF7E8F846
:1013A00080234246DB05936180231B069361A821BD
:1013B0000022274B0092490080322648FFF780FE2A
:1013C0000121254A2548FFF7D3F8FFF761FA2448A1
:1013D000FFF76EFA2348002382468020C0010021D7
:1013E000FF220027002481461F4E03AD11E0424634
:1013F00000271B069361601C0321FEF72BFF0C00E6
:101400001A48FFF7BDFE63001B19F25CF318597808
:101410009B782A706970032229000020AB70FFF7C7
:10142000BFFA002807D18023002FE0D142461B02DB
:1014300001279361DFE743464A469A61802342468B
:101440001B0250469361FFF70BFCECE700040048D9
:1014500031130008380A00201A070000000800486D
:101460000416000870150008F8150008B80B0000F5
:1014700010160008880B0020880B0020880B002025
:10148000101600080000000000000000000000002E
:10149000101600080000000000000000000000001E
:1014A000101600080000000000000000000000000E
:1014B00010160008000000000000000000000000FE
:1014C00010160008000000000000000000000000EE
:1014D00010160008000000000000000000000000DE
:1014E00010160008000000000000000000000000CE
:1014F0000000024008000240010000000000000956
:10150000000002401C000240060000000004010A26
:101510000000024030000240060000000008020AFD
:10152000000002404400024078000000000C030B61
:101530000000024058000240780000000010040B38
:10154000000002406C000240780000000014050B0F
:101550006330000069646C65000000006E6F6E61AE
:101560006D6500006C65642D626C696E6B00000037
:10157000534C454431206672616D65204641494CAB
:1015800000000000501500080000000000000000EE
:101590005008002030090020C40D0008A20D0008EA
:1015A000A20D0008C80D00089A0D0008920D000851
:1015B000A20D00089A0D0008A20D0008A20D000857
:1015C000A20D0008A20D00089A0D00086D61696E59
:1015D000002C063804044C080C10141C202425266A
:1015E00000000000000024040100040000000000CE
:1015F000000C001028303400FF000000FF00000045
:0C160000FF000000040F50031F0000005A
:04160C0000A24A04EA
:04000005080001915D
:00000001FF
